:020000020000FC
:02000400C7D063
:02000800C5D061
:02000C00C3D05F
:02001000C1D05D
:02001400BFD05B
:02001800BDD059
:02001C00BBD057
:02002000B9D055
:02002400B7D053
:02002800B5D051
:02002C00B3D04F
:02003000B1D04D
:02003400AFD04B
:02003800ADD049
:02003C00ABD047
:02004000A9D045
:02004400A7D043
:02004800A5D041
:02004C00A3D03F
:02005000A1D03D
:020054009FD03B
:020058009DD039
:02005C009BD037
:0200600099D035
:1000640097D00008000400701A000A0041546D651E
:10007400676133323850AF93AFB7AF93BF93EF9309
:10008400FF93B091C600A0911201E0E0F1E0EA0F05
:10009400F31DB083A395AF70A0931201FF91EF916C
:0A00A400BF91AF91AFBFAF91189567
:0200480018C0DE
:1000AE0000384E393738120187384E393738140137
:1000BE0087381A3806FF72782D697372000000387F
:1000CE00800030386700373814019238AB38293A3F
:1000DE0037380F000D3A373814018738373800019A
:1000EE00973992381A3807FF72783F2D697372006C
:1000FE0061000038113D373814019238373812013B
:10010E0092380D391A3807FF74782D706F6C6C00A9
:10011E007A0000389E00303891003738C600873894
:10012E001A3808FF74783F2D706F6C6C8A00003897
:10013E00113D3738C0009238373820000D3A1A3842
:10014E0004FF75627272980069388400803D8A3DA2
:10015E0006FF2B7573617274A7000038373898004C
:10016E003738C1008738373806003738C20087382D
:10017E00AB00AB38E73A3738C50087383738C4009C
:06018E00873857001A3803
:040000000C941A3D05
:100194000A920FB60A920F900F900A9400921601D9
:1001A40009900FBE09906894089502FF6D2BAF006B
:1001B4000038AF3F043C1A3803FF75642A00D700A7
:1001C4000038AB38F938DA39D338BE38F038DA3990
:1001D400DB3897391A3804FF756D6178DE00003812
:1001E400B13E56393038F700BE38D3381A3804FFD8
:1001F400756D696EED000038B13E61393038030128
:10020400BE38D3381A380038373800800D3A1439DC
:1002140030380F01373801001A3845391A380AFFC7
:100224006E616D653E666C616773F9000038BA3BB8
:10023400373800FF0D3A1A3803FF76657200110152
:1002440000388402AD03963FA53E73389202293FDD
:10025400AF3FCB02D30237382E00BC02E902F402CE
:10026400E303A53E7B38963F9A02AD031A3804FF98
:100274006E6F6F701E0100381A3806FF756E757345
:100284006564390100387B3A0B3F8D391A38020016
:10029400746F3F010038F203B83F9F3E7338303823
:1002A4005D01F2065701FD061A380038F038AB3804
:1002B4006901F938BA3BAB3869016901BA3B2438A2
:1002C4001A3807FF692D63656C6C2B0049010038EF
:1002D400293A1A3808FF69636F6D706172656301AA
:1002E4000038F938C938F0380D3930387D01BA3E54
:1002F400D33845391A38BE384E39BC073038A201D4
:10030400893AC9387338A501C938BA3BA501AB3855
:1003140037380001563930389301BE383738FF007A
:100324000D3A0D3930389A01BA3E4539C23A1A3875
:10033400293ABE38823CBE3837380200A83A8301D5
:10034400BA3E4E391A380038AB383738FF000D3A08
:10035400613FBE38E73A3738FF000D3A613FE73A6C
:10036400163A1A3801FF2A006C010038A039D33834
:100374001A3801FF6A00B4010038643A37380700BC
:1003840097397338643A373809009739733897398D
:100394001A3804FF64616273BB010038AB381B393F
:1003A4003038D501DC011A3807FF646E6567617463
:1003B4006500CB0100382A3C373801004E39043C33
:1003C4001A3805FF636D6F766500D601E901BF93A6
:1003D400AF93E991F991A991B991092F082B21F0D3
:1003E4001D9111930197E1F7AF91BF918991999173
:1003F4000C94043805FF327377617000E301003810
:10040400DB38F938DB38F0381A380AFF7265666968
:100414006C6C2D746962FC0100382A0237385A006A
:100424003A0430027B384E39CA3E7B3845391A3893
:100434000AFF736F757263652D7469620702003871
:100444002A02300273381A3803FF746962001A02F0
:100454004238170104FF237469622602423871018D
:1004640006FF65653E72616D2C0200384E39893A8B
:10047400C9384D3BC9387B38823CBE38823CBE38D3
:10048400B73A3A02BA3E1A3808FF696E69742D7297
:10049400616D3202003837386800F03A37381C0092
:1004A400FE3937021A380BFF656E7669726F6E6D0E
:1004B400656E740046024238420009FF776F726429
:1004C4006C697374730000000038373808001A38F8
:1004D40004FF2F7061645F0200387B3AD03E8D398F
:1004E4001A3805FF2F686F6C64006A020038D03E2A
:1004F4000B3F8D391A380AFF666F7274682D6E616E
:100504006D65730200387A030700616D666F72745B
:1005140068001A3807FF76657273696F6E007D0292
:10052400003837383D001A3803FF637075008C02B9
:10053400003837383700D9031A3808FF6D63752D32
:10054400696E666F96020038373833001A3805FF33
:100554002F75736572009F020038373826001A38E9
:1005640003FF686C640055024238730104FF686F2E
:100574006C64B2020038B602AB3873382F3AAB3829
:10058400F938BE387B38F03887381A3802FF3C23F4
:10059400B8020038D03EB6027B381A3801FF230077
:1005A400C8020038A53E73385003DB3837380900D9
:1005B400C93868393038E102373807009739373895
:1005C40030009739BC021A3802FF2373D002003876
:1005D400D302B13E163A14393038EA021A3802FF0F
:1005E400233EE6020038BA3EB6027338D03EC9381C
:1005F4008D391A3804FF7369676EF10200381B39AC
:100604003038070337382D00BC021A3803FF642E34
:100614007200FC020038F938C23ECF01CB02E90275
:10062400DB380003F402F038C9388D399F3FE30307
:100634001A3802FF2E7208030038F938AF3FF03839
:100644000C031A3802FF642E1B0300384E390C03C6
:10065400963F1A3801FF2E0024030038AF3F2703CA
:100664001A3803FF75642E002C0300384E394003FA
:10067400963F1A3804FF75642E7233030038F93834
:10068400CB02E902F402F038C9388D399F3FE30305
:100694001A3806FF75642F6D6F643C030038F9380F
:1006A4004E390239BC39F038BE38F938BC39F03823
:1006B4001A3806FF64696769743F4B0300384E3F7C
:1006C400AB38373839007239373800010D3A973969
:1006D400AB38373840017239373807010D3A8D3954
:1006E400373830008D39AB38A53E733856391A384F
:1006F40000380239D903F038C938293AFE39973914
:10070400293AF9381A3802FF732C5B030038AB38E6
:100714008C031A380038FD06AB38FE39C23E053A60
:100724008D39F9384E39BC0730389F03893AAB38D4
:100734007338FD06823CB73A9903F03822393038D1
:10074400A603AB389238FD06D3381A3805FF69740E
:100754007970650085030038AB38FE39C23E053A2E
:100764008D39F9384E39BC073038C103893AAB3872
:10077400BA3BAB38CE03CA03293AB73AB903F038C7
:1007840022393038C803AB38BA3BCE03D3381A38D1
:100794000038E73ACE031A3800383738FF000D3AEC
:1007A400DA3E1A3806FF69636F756E74A803003861
:1007B400AB38293ABE38BA3B1A3804FF74797065ED
:1007C400D4030038813FBC073038EE03893A9A3AA3
:1007D4009238DA3EB73AE9031A3801FF2700DF03FB
:1007E40000385E05A0051606C73F3038FB03D33832
:1007F4001A383738F3FF663D05FF63736B69700081
:10080400EF030038F938AB3830381204C93892385D
:100814000239C73F30381204CE3F4F05293805044A
:10082400F038D3381A3805FF637363616E00FE0332
:100834000038F938C938AB3892380239C73F14390F
:1008440030382F04BE382F3ABE38C9381B39143912
:1008540030382F04293A29381D04EA38C9388D392B
:10086400F038D3381A3806FF616363657074150471
:100874000038C93897392F3AC938EB3EAB387B0476
:10088400143930386D04AB3837380800C73F303876
:100894005D04D338DB38B13E7239F938DB38DB38E4
:1008A400F03830385B0473042F3AF938C938F0381B
:1008B400F10029386B04AB383C3F683930386404A4
:1008C400D3383C3FAB38DA3EC9388738293AC9387F
:1008D400FD0029383F04D338EA38BE388D39893FC2
:1008E4001A38003837380800AB38DA3E963FDA3E1B
:1008F4001A380038AB3837380D00C73FBE383738A0
:100904000A00C73F163A1A3806FF726566696C6CAE
:100914003504DF3D1A00A83DB43D04FF63686172ED
:10092400860400385E05D33892381A3806FF6E758F
:100934006D6265728F040038A53E7338F938E1049E
:10094400F938F404E104F038163AF938AB381439BC
:100954003038B404BA3EF038D338F038A53E7B388A
:100964004E391A380C3B4E394E391B3B1205B338FD
:100974003038D604CE3FC73F3038CD0492383738AC
:100984002E00C73F3038CE04F0383038CA04DC01BA
:10099400D33F2938DC04D338BA3EF038D338F038A2
:1009A400A53E7B384E391A38BA3EF0383038DB046D
:1009B4000F3ECE3FF038A53E7B3845391A38003813
:1009C400C938923837382D00C73FAB38F93830383A
:1009D400ED04CE3F4F05F0381A384C380A001000A9
:1009E40002000A000038C9389238373823008D399C
:1009F400AB384E39373804003F3E30380A05EF042F
:100A04009739BA3BA53E7B38CE3F4F0529380B05B5
:100A1400D3381A3807FF3E6E756D6265720098040C
:100A24000038AB3830382B05C93892386003143994
:100A340030381E05D3381A38F9380102A53E733808
:100A4400E200F038DA000102373801004F05293896
:100A540013051A3805FF7061727365000C050038C0
:100A6400F9384505CA3E73384F05F0381A04AB38D7
:100A7400293ACA3E533ACE3F4F051A3806FF736FE0
:100A8400757263652C05DF3D1600A83DB43D07FF74
:100A94002F737472696E670040050038DB38C938FB
:100AA4009739DB38DB388D391A380AFF7061727375
:100AB400652D6E616D65490500383C3F62051A3845
:100AC4000038F9384505CA3E73384F050239030426
:100AD400F0381A04B13E97394505D3388D39CA3EEA
:100AE4007B381A3803FF73703000570569380600E5
:100AF400A83DB43D02FF737074055238080003FF2B
:100B0400727030007C050038890573381A38523801
:100B1400040005FF64657074680081050038780579
:100B24007B3A8D39FE392F3A1A380DFF646F2D72D6
:100B340065636F676E697A6572008B0500383738B4
:100B4400AC0537385A00360914393038AB05BA3E8B
:100B54002B061A380038DB38DB38B13E0C3BDB3867
:100B640024381B3BDB38AB382B06C73F3038BD0578
:100B7400D3384E391A38EA38EA3845391A3809FF71
:100B8400696E7465727072657400970500385E054D
:100B9400AB383038D805A0059F3E73383038D305BC
:100BA4006901BA3B2438733F2938C905BA3E1A385B
:100BB40005FF723A6E756D00C1054C383D0113078F
:100BC400130706FF723A646E756DDA054C383D0101
:100BD400BF3FBF3F07FF7265633A6E756D00E30563
:100BE40000389D043038FE05CE3FC73F3038FC0541
:100BF400DF051A38E8051A382B061A3808FF72651B
:100C0400633A776F7264EC050038A106AB38143987
:100C140030380F06D3382B061A3816061A3806FF52
:100C2400723A776F726400064C381A061E06BF3F8C
:100C34000038D33824381A3800381B3930382406A1
:100C4400FD061A3824381A3806FF723A6661696C50
:100C540011064C382F062F062F0600383738F3FFBD
:100C6400663D0FFF7365617263682D776F72646C04
:100C74006973740026060038F9384E39373852063D
:100C8400F0386F06AB38143930384C06BA3ED338D6
:100C94004E391A38AB389606BE38180105011A3891
:100CA4000038F938D338B13E02398A067201303837
:100CB4006006F038D3384E3945391A38BA3EF03820
:100CC4004E391A3811FF74726176657273652D7727
:100CD4006F72646C69737400330600384D3BAB3833
:100CE40030388006B13E0C3BBE3824381B3BDB3821
:100CF400303880069C09BA3B29387106BA3E1A3846
:100D04000BFF6E616D653E737472696E67006406F5
:100D14000038D9033738FF000D3A1A3807FF6E66DA
:100D2400613E63666100820600389C09293A1A38DC
:100D340009FF66696E642D6E616D6500900600386A
:100D44003738AD0637384800360914393038AC0620
:100D5400BA3E4E391A380038F938B13EF0383D06FB
:100D6400AB383038BA06F938EA38EA38F038453959
:100D74001A3806FF6E65776573749A0642387501F2
:100D840006FF6C6174657374BB064238790108FF11
:100D94002863726561746529C20600385E052608F9
:100DA400AB38C006823C7B380B08C0067B381A3847
:100DB40001005C00C90600384505EA38CA3E7B38A4
:100DC4001A3801002800DA060038373829003105BE
:100DD400BA3E1A3807FF636F6D70696C6500E306ED
:100DE4000038F038AB386901F938BA3BFD061A38D7
:100DF40001FF2C00EC060038FA3E613BFA3E293A2A
:100E04005701FB3E1A3803005B275D00FA060038E1
:100E1400F20313071A3807006C69746572616C0079
:100E240005070038F2063738FD061A380800736CD7
:100E340069746572616C0D070038F2067A038803E1
:100E44001A380038FA3EF206FFFF1A380038733FAA
:100E5400FA3EBE38613B1A380038FA3E1A38003878
:100E6400733FFD061A380500616865616400180760
:100E74000038F206293823071A3802006966350754
:100E84000038F206303823071A380400656C73659D
:100E94003F070038F20629382307BE3828071A38D6
:100EA40004007468656E4707003828071A3805007F
:100EB400626567696E00520700382E071A3805000C
:100EC4007768696C6500590700384207BE381A38DC
:100ED4000600726570656174610700388307560700
:100EE4001A380500756E74696C006A070038373863
:100EF4003038FD0631071A380500616761696E00F4
:100F040073070038F206293831071A380200646F73
:100F14007E070038F206893A2E074E39E6071A385A
:100F240004006C6F6F7088070038F206B73ACD077B
:100F34001A3805002B6C6F6F700092070038F206A8
:100F4400A83ACD071A3805006C65617665009B07E1
:100F54000038F206C23A3A07E6071A3803003F643B
:100F64006F00A5070038F206BC0742078B07BE389E
:100F7400E6071A380038B13EC73FAB38F938303885
:100F8400C407BA3EF038F7391A3807FF656E646C47
:100F94006F6F7000B00700383107DA07B3383038A4
:100FA400D60756072938CF071A3802FF6C3EC70701
:100FB4000038F907733873383738FEFFF907533AA6
:100FC4001A3802FF3E6CD7070038D33FF907533A6B
:100FD400F90773387B381A3803FF6C703000E30765
:100FE40069383E00803D8A3D02FF6C70EE0742384E
:100FF4007B0106FF637265617465F6070038CF06EE
:101004002F08F2064C381A3806FF68656164657269
:10101400FB070038FA3EF938F938AB382239303852
:101024001D08AB38373800FF163A8C03F0384D3BB7
:10103400FD06F0381A383738F0FF663D07FF776C45
:1010440073636F7065000608DF3D3C00803D8A3D98
:1010540006FF72657665616C20080038C006823C24
:101064007338B33830383A08C0067338BE38293B71
:101074001A380500646F65733E002A080038F206CA
:101084005308F2060E94F20648081A389A938A9383
:10109400CB0101967F916F91BF93AF93DB010C94C9
:1010A40004380038F038C006823C73384D3B96064D
:1010B400613B1A3801FF3A003B080038CF066A0842
:1010C400D3381A3807FF3A6E6F6E616D65005C089D
:1010D4000038FA3EAB38C7067B38F20600387F0882
:1010E4001A3801003B0064080038F2061A388708F1
:1010F4002F081A3801FF5D0073080038CE3F9F3E69
:101104007B381A3801005B007C0800384E399F3E5A
:101114007B381A3808FF7661726961626C658408ED
:1011240000380B3F9E08D33F143F1A3808FF636F03
:101134006E7374616E748C080038CF062F08F20643
:101144004238FD061A3804FF757365729808003832
:10115400CF062F08F2065238FD061A3807007265CA
:10116400637572736500A5080038C7067338FD06F9
:101174001A3809FF696D6D65646961746500B008AA
:1011840000385D094D3BAB38BA3B3738FF7F0D3A29
:10119400BE38613B1A3806005B636861725DBB0848
:1011A4000038F20637389304FD061A3806006162E7
:1011B4006F727422CD080038723EF206EF081A38B6
:1011C40005FF61626F727400D80800384539663DC6
:1011D40006FF3F61626F7274E2080038DB38303812
:1011E400F508AD03E708BA3E1A3809FF6765742DA0
:1011F400737461636B00EA080038AB38823CBE3814
:101204004D3BAB38F9384E39BE38BC073038150978
:10121400893A9A3A2F3AAC3EC93897394D3BBE3891
:101224004539A83A0B09BA3EF0381A3809FF7365F4
:10123400742D737461636B00F7080038B13E293B69
:10124400BE384E39BC0730382D09893A823CC23E3B
:10125400293BB73A2809D3381A3809FF6D61702D34
:10126400737461636B0018090038AB38823CBE3874
:101274004D3BAC3E813FBC0730385209893A9A3A1B
:101284004D3BBE38F93802392438B33830384E096A
:10129400F038D338C23A1A38F038D33FA83A410963
:1012A400D3384E391A380BFF6765742D6375727223
:1012B400656E74002F090038373844004D3B1A38E6
:1012C40009FF6765742D6F726465720055090038F3
:1012D40037384800FE081A3807FF636F6D70617273
:1012E400650062097509BF93AF938C018991999147
:1012F400DC01899199919C0189919991FC01ED906E
:10130400F190EF1451F40A9519F02A95C1F701C030
:101314002A95022B11F4882702C08FEF00C0982F62
:10132400AF91BF910C94043807FF6E66613E6C6602
:1013340061006E0900388A06293AFE3997391A384D
:101344000BFF7365742D63757272656E7400960974
:10135400003837384400293B1A3808FF776F726425
:101364006C697374A2090038033F4E39C938293BAC
:10137400AB38823C5701043F1A380EFF666F727413
:10138400682D776F72646C697374AF0942384600D4
:1013940009FF7365742D6F7264657200BF090038AC
:1013A400373848001F091A380FFF7365742D7265AA
:1013B400636F676E697A65727300CA0900383738DB
:1013C4005A001F091A380FFF6765742D7265636F21
:1013D400676E697A65727300D609003837385A0027
:1013E400FE081A3804FF636F6465E5090038CF0608
:1013F4002F08FA3E6901FD061A3808FF656E642D50
:10140400636F6465F4090038F2060C94F20604383C
:101414001A3808FF286D61726B657229FF096938F3
:101424006600803D8A3D0800706F7374706F6E654E
:101434000B0A00385E05A005AB38F938690169016B
:10144400BA3B2438F0386901BA3BFD061A380BFF61
:101454006170706C7475726E6B657900150A003872
:10146400B400893C22011A3802FF2E73290A00387D
:101474009005F23D963F90054E39BC073038480A36
:10148400893A9A3A763CF23DB73A430A1A380AFF47
:101494006275696C642D696E666F360A00387A036A
:1014A40015004F63742031372C2032303135203110
:1014B400343A32363A313600AD031A3805FF706CCF
:1014C40061636500490A0038B13E8738293ABE385D
:1014D400E8011A3804FF776F7264600A0038620505
:0814E4000B3F650A0B3F1A38AB
:10700000BF93AF93DB0111966EF0FD01EE0FFF1FF2
:10701000659175911196FB01EE0FFF1F059115917A
:10702000F8010994E89464EB7CE3F5CF04FF6578FC
:1070300069746C0A1B38AF91BF91E6CF07FF657882
:1070400065637574650016382538BC01899199917E
:10705000E2CF2A38FD01EE0FFF1FA591B591D4CFE5
:107060003138982B89919991A9F31196CDCF383861
:107070009A938A93FD01EE0FFF1F859195911196CA
:10708000C3CF42389A938A93FB013196EE0FFF1FCC
:1070900085919591B9CF4C389A938A93CB010196FB
:1070A000B3CF52389A938A93FB013196EE0FFF1FAC
:1070B00085919591840D951DA7CF07FF2876616C6A
:1070C000756529001E380038CF062F08F20669388A
:1070D0001A380E944808AB386901BA3B24381A387C
:1070E00001FF40005D387438FC01819191918CCF93
:1070F00001FF210070387C38FC01899199919183BE
:1071000080838991999180CF02FF632178388838F4
:10711000FC018991999180838991999175CF02FFA2
:10712000634084389338FC01992780816DCF02FF3A
:1071300040758F380038F03A973973381A3802FFA3
:10714000217597380038F03A97397B381A3803FFA1
:10715000647570009F38AC389A938A9355CF04FFBA
:107160003F647570A738B438082F092B11F09A9333
:107170008A934ACF04FF73776170AF38BF388C01B0
:10718000899199911A930A933FCF04FF6F766572A4
:10719000BA38CA389A938A938A819B8135CF04FF83
:1071A00064726F70C538D438899199912DCF03FFDF
:1071B000726F7400CF38DC388C0129913991899134
:1071C00099913A932A931A930A931ECF03FF6E69FB
:1071D0007000D738EB38229617CF02FF723EE638A0
:1071E000F1389A938A938F919F910ECF02FF3E724E
:1071F000ED38FA389F938F938991999105CF02FFCB
:107200007240F63803399A938A938F919F919F9396
:107210008F93FACE02FF3C3EFF380038C73F143947
:107220001A3802FF303D0A391539982BD1F530C094
:1072300002FF303C11391C3997FD2AC032C002FFD1
:10724000303E18392339821593055CF151F120C085
:1072500003FF64303E001F392D3982159305899153
:10726000999182059305ECF0E1F012C003FF6430C0
:107270003C0028393B39229697FD0C9448390C94F0
:10728000513904FF74727565363946399A938A9379
:107290008FEF9FEFB9CE01FF300041394F399A93FC
:1072A0008A93C101B1CE02FF753C4B395739299100
:1072B000399182179307A8F3A1F3EACF02FF753E35
:1072C00053390038BE3856391A3801FF3C005E3950
:1072D000693929913991281739071CF7D9CF01FF4E
:1072E0003E00653973392991399128173907CCF255
:1072F000C1F2CECF04FF6C6F67326F397F39FC016A
:10730000992780E18A9522F0EE0FFF1FD8F77CCEF7
:107310009A957ACE01FF2D007A398E39099119910B
:10732000081B190BC80170CE01FF2B008A39983950
:1073300009911991800F911F67CE02FF6D2A943930
:10734000A1398C01899199919C0131027001209F92
:10735000C0013003F308900DE11CF31C1203F30885
:10736000900DE11CF31C9A938A93C7014DCE06FF42
:10737000756D2F6D6F649D39BD397C0129913991EF
:107380000991199140E15527000F111F221F331F4A
:10739000551F2E153F05520518F003952E193F096C
:1073A0004A9589F73A932A93C8012ECE03FF756D4B
:1073B0002A00B739DB398C0189919991809FF001BE
:1073C00022273327909FF00D211D331D819FF00D43
:1073D000211D331D919F200D311DCF019A938A935A
:1073E000C90112CE06FF696E76657274D639F83916
:1073F0008095909509CE02FF322FF239FF3995958D
:10740000879502CE02FF322AFB39063A880F991F70
:10741000FBCD03FF616E6400023A0E3A09911991A7
:1074200080239123F1CD02FF6F72093A173A099137
:107430001991802B912BE8CD03FF786F7200133ADE
:10744000213A0991199180279127DECD02FF312B36
:107450001C3A2A3A0196D8CD02FF312D263A303A0D
:107460000197D2CD06FF6C73686966742C3A383A7E
:10747000FC018991999131971AF0880F991FFBCFE0
:10748000C3CD06FF727368696674323A473AFC01ED
:107490008991999131971AF096958795FBCFB4CD44
:1074A00002FF2B21413A543AFC01899199912081A4
:1074B0003181820F931F8083918389919991A4CD0B
:1074C00003FF72704000503A653A9A938A938DB7E1
:1074D0009EB79ACD03FF72702100603A6F3A2FB7C2
:1074E000F8948DBF9EBF2FBF899199918DCD03FFD9
:1074F000737040006A3A7C3A9A938A93CE0184CDA5
:1075000003FF73702100773A853AEC0189919991D4
:107510007BCD8A3A29913991E0E83E0F821B930B8B
:107520003F932F939F938F93899199916DCD01FFF5
:107530006900803A9B3A9A938A938F919F91EF9139
:10754000FF91FF93EF939F938F938E0F9F1F5CCDBF
:10755000A93AEF91FF91E80FF91F899199911BF0DA
:10756000FF93EF9377CD0F911F9111964DCDB83AC0
:10757000EF91FF913196BBF3F3CF06FF756E6C6F01
:107580006F70973AC33A1F910F911F910F913CCDA5
:1075900006FF636D6F76653EBD3ACE3ABF93AF93FB
:1075A000E991F991A991B991092F082B41F0E80FC0
:1075B000F91FA80FB91F1E9112930197E1F7AF9120
:1075C000BF918991999120CD02FF3E3CC83AE83A9B
:1075D000092F982F802F18CD03FF75704000E43AD3
:1075E000F13A9A938A93C2010FCD03FF757021007F
:1075F000EC3AFA3A2C018991999106CD03FF316D4D
:107600007300F53A033BE0EDF7E03197F1F7FCCC7E
:1076100003FF323E7200FE3A0D3BFC0189919991C5
:107620009F938F93FF93EF9389919991EDCC03FFF3
:1076300032723E00083B1C3B9A938A93EF91FF9174
:107640008F919F919A938A93CF01DECC02FF21659F
:10765000173B2A3BFC01899199912FB7F89428D0C8
:1076600000B5081709F00BD0319622D000B50917E4
:1076700011F0892F04D02FBF89919991C5CCF99928
:10768000FECF07B700FDFDCFF2BDE1BD80BDFA9A88
:10769000F99A089502FF4065263B4E3B2FB7F894B8
:1076A000FC0106D080B5319603D090B52FBFACCC8D
:1076B000F999FECFF2BDE1BDF89A089502FF216964
:1076C0004A3BDF3D6400803D8A3D09FF2821692D4A
:1076D0006E72777729005E3B6D3B1FB71F93F8945E
:1076E0009C0189919991AF93BF93CF93DF9309D078
:1076F000DF91CF91BF91AF91899199911F911FBF58
:1077000083CC11D0E094F0948E219F21982B21F00E
:10771000B394F90102E020D0F90104E01DD0F90191
:1077200000E11AD00895F901E07CFF7FEF01A0E4A9
:10773000B0E0FE01EE0FFF1F45915591FE01E217EB
:10774000F30711F00A0102C07A010C01002704D0EE
:107750002196119771F70895F999FECF17B710FD8B
:10776000FDCFEE0FFF1F016007BFE895089502FFF0
:107770004069653BBB3BFC01EE0FFF1F8591959176
:1077800043CC03FF6E3E7200B73BC63BFC01082FA3
:10779000899199919F938F930A95D1F7EF93FF93D6
:1077A0008991999131CC03FF6E723E00C13BD83B69
:1077B0009A938A93FF91EF910E2F8F919F919A93B5
:1077C0008A930A95D1F7CF011FCC03FF64322A00B8
:1077D000D33BEA3B09911991000F111F881F991F94
:1077E0001A930A9311CC03FF64322F00E53BF83B58
:1077F0000991199195958795179507951A930A936D
:1078000003CC02FF642BF33B053C29913991E990AD
:10781000F99049915991240F351F8E1D9F1D3A9360
:107820002A93F2CB02FF642D013C163C2991399139
:10783000E990F99049915991421B530BE80AF90AD2
:107840005A934A93C701E0CB07FF64696E7665726D
:107850007400123C2B3C09911991809590950095EC
:1078600010951A930A93D0CB04FF2F6D6F64243CBC
:10787000393C9C0109911991412F432717FF04C0FE
:10788000109500950F5F1F4F37FF04C0309520956E
:107890002F5F3F4FEE24FF1851E1001F111F5A9533
:1078A00039F447FF04C0109500950F5F1F4F0BC0C0
:1078B000EE1CFF1CE21AF30A20F4E20EF31E889479
:1078C000ECCF0894EACFFA92EA92C8019DCB03FF6D
:1078D00061627300343C6C3C99231AF48095909556
:1078E000019692CB04FF7069636B673C0038293ABC
:1078F000AC3E7B3A973973381A3805FF63656C6C78
:107900002B00723C833C02967FCB04FF2B696E7484
:107910007D3C8A3C789478CB04FF2D696E74853C5D
:10792000913CF89471CB04FF696E74218C3C003853
:10793000373800009739293B1A3804FF696E7440C4
:10794000933C00383738000097394D3B1A3808FF10
:10795000696E742D747261709D3CAE3C809316010B
:1079600089919991689450CB003837381601923834
:107970003738000097394D3B2438BF3C1A38C03C9B
:1079800001D042CB189500387A030300206F6B00BA
:10799000AD031A3800387A0302003E20893FAD0358
:1079A0001A3800387A030400203F3F20AD03A53E7B
:1079B0007338F938293F2F03CA3E73382F03F03844
:1079C000A53E7B381A3804FF71756974A73C0038EE
:1079D000F207F9077B387805843A85056E3A8708FF
:1079E0009F3E733814393038F63CCA3C8B0430382B
:1079F000F03C3738C805503DB3383038083DAB3817
:107A00003738FEFF68393038063DD13C2938E83C2C
:107A1000C33C2938F03C1A3805FF70617573650066
:107A2000E33CDF3D7D01943D9E3D04FF636F6C644C
:107A30000C3D1A3DA4B62224332424BEE0E0F1E03C
:107A40002192E030E9F7F930D9F7EFE7F1E02F01C3
:107A50000FEF0DBF048318E01EBF1583CFEAC68366
:107A6000D8E0D783AAE3BDE3CFCA04FF7761726D84
:107A7000153D00384C0237383D013738113DBF3DC8
:107A80008708443FE73C07FF68616E646C657200DD
:107A9000353D52380A0005FF636174636800433D59
:107AA00000387B3AF938493D7338F938643A493D32
:107AB0007B382438F038493D7B38F038D3384E399C
:107AC0001A3805FF7468726F77004B3D0038AB3889
:107AD000143930386D3DD3381A38493D73386E3A11
:107AE000F038493D7B38F038BE38F938843AD3381D
:107AF000F0381A3807FF4564656665724000613DDD
:107B00000038BA3B4D3B1A3807FF4564656665721D
:107B100021007A3D0038BA3B293B1A3807FF5264EE
:107B2000656665724000843D0038BA3B73381A3888
:107B300007FF52646566657221008E3D0038BA3BCE
:107B40007B381A3807FF5564656665724000983DBA
:107B50000038BA3BF03A973973381A3807FF556442
:107B6000656665722100A23D0038BA3BF03A97394C
:107B70007B381A3806FF646566657221AE3D0038B1
:107B8000B83FAB3869016901BA3B24381A3806FF9F
:107B9000646566657240BA3D0038B83FAB3869012C
:107BA000BA3B24381A3807FF2864656665722900D5
:107BB000C73D0038CF062F08F206DF3D1A380E9475
:107BC0004808AB386901BA3B243824381A3802FF18
:107BD000643DD33D0038153C163A14391A3802FF7B
:107BE000752EE73D00384E3937031A3803FF752EDE
:107BF0007200EF3D00384E39BE3840031A3805FF99
:107C0000752F6D6F6400F63D0038F9384E39F03845
:107C1000BC391A3806FF6E6567617465FF3D003830
:107C2000F739293A1A3801FF2F000A3E0038383C4C
:107C3000EA381A3803FF6D6F6400133E0038383C91
:107C4000D3381A3803FF6D696E001A3E0038B13E12
:107C5000723930382C3EBE38D3381A3803FF6D6184
:107C60007800223E0038B13E68393038383EBE38A0
:107C7000D3381A3806FF77697468696E2E3E00386B
:107C8000C9388D39F9388D39F03856391A380DFF21
:107C900073686F772D776F72646C697374003A3E06
:107CA00000383738563EBE386F061A3800388A0614
:107CB000AD03963F45391A3805FF776F726473003C
:107CC000473E003837384A004D3B503E1A380200D4
:107CD0002E225C3E0038723EF206AD031A380200D6
:107CE0007322673E00383738220031059F3E7338D3
:107CF00030387B3E1E071A3804FF66696C6C6F3E95
:107D00000038DB38DB38B33830388D3E813F893A74
:107D1000AB389A3A8738B73A883ED3381A3805FFD5
:107D2000665F637075007C3E003837380012373864
:107D30007A001A3805FF7374617465008F3E42380B
:107D4000A50104FF626173659A3E52380C0005FF7D
:107D500063656C6C7300A13E063A04FF3264757073
:107D6000A73E0038C938C9381A3805FF3264726F27
:107D70007000AD3E0038D338D3381A3804FF74751C
:107D8000636BB53E0038BE38C9381A3803FF3E6908
:107D90006E00BE3E5238180003FF70616400C63E9C
:107DA00000380B3F3738280097391A3804FF656DC3
:107DB0006974CC3EDF3D0E00A83DB43D05FF656D06
:107DC00069743F00D63EDF3D1000A83DB43D03FF7F
:107DD0006B657900DE3EDF3D1200A83DB43D04FF37
:107DE0006B65793FE73EDF3D1400A83DB43D02FFDF
:107DF0006470EF3E69383600803D8A3D05FF656856
:107E000065726500F73E69383A00803D8A3D04FF9F
:107E100068657265FE3E69383800803D8A3D05FF21
:107E2000616C6C6F7400073F00380B3F9739570146
:107E30000C3F1A3803FF62696E000F3F0038D33FD2
:107E4000A53E7B381A3807FF646563696D616C0075
:107E50001A3F003837380A00A53E7B381A3803FF2E
:107E600068657800233F003837381000A53E7B381E
:107E70001A3802FF626C2F3F4238200007FF7475EA
:107E8000726E6B657900393FDF3D4000803D8A3D71
:107E900007FF746F7570706572003E3F0038AB3835
:107EA0003738610037387B003F3E30385A3F37382B
:107EB000DF000D3A1A3807FF746F6C6F7765720038
:107EC000483F0038AB383738410037385B003F3E19
:107ED00030386D3F37382000163A1A3806FF3F73A6
:107EE0007461636B5B3F003890051B3930387B3F12
:107EF0003738FCFF663D1A3806FF626F756E647393
:107F00006E3F0038C9389739BE381A3802FF63729D
:107F10007C3F003837380D00DA3E37380A00DA3E49
:107F20001A3805FF737061636500863F00383C3F77
:107F3000DA3E1A3806FF737061636573913F00384B
:107F40004E39323EAB383038A93F963F2F3A293868
:107F5000A23FD3381A3803FF733E64009A3F0038BB
:107F6000AB381B391A3805FF3E626F647900AB3FAE
:107F70002A3A0800326C69746572616CB33F00384C
:107F8000BE38130713071A3801FF3D00B93F003808
:107F90008D3914391A3801FF3100C43F42380100CD
:107FA00001FF3200CB3F4238020002FF2D31D03FAB
:047FB0004238FFFF55
:00000001FF
