:100000000C941A3D14D1FFFF12D1FFFF10D1FFFF56
:100010000ED1FFFF0CD1FFFF0AD1FFFF08D1FFFF78
:1000200006D1FFFF04D1FFFF02D1FFFF00D1FFFF88
:10003000FED0FFFFFCD0FFFFFAD0FFFFF8D0FFFF9C
:10004000F6D0FFFFF4D0FFFF18C0FFFFF0D0FFFF96
:10005000EED0FFFFECD0FFFFEAD0FFFFE8D0FFFFBC
:10006000E6D0FFFFE4D00008000400701A000A0088
:1000700041546D65676133323850AF93AFB7AF937A
:10008000BF93EF93FF93B091C600A0911201E0E0FF
:10009000F1E0EA0FF31DB083A395AF70A0931201B6
:1000A000FF91EF91BF91AF91AFBFAF91189500381D
:1000B0004E393738120187384E39373814018738AE
:1000C0001A3806FF72782D697372000000388000BC
:1000D00030386700373814019238AB38293A37384E
:1000E0000F000D3A37381401873837380001973937
:1000F00092381A3807FF72783F2D697372006100D9
:100100000038113D373814019238373812019238CF
:100110000D391A3807FF74782D706F6C6C007A00F7
:1001200000389E00303891003738C60087381A38BA
:1001300008FF74783F2D706F6C6C8A000038113D99
:100140003738C0009238373820000D3A1A3804FF8B
:1001500075627272980069388400803D8A3D06FF9E
:100160002B7573617274A7000038373898003738E0
:10017000C1008738373806003738C2008738AB00EF
:10018000AB38E73A3738C50087383738C400873886
:1001900057001A3808FF31772E7265736574AF0007
:1001A000D1009A938A939927249A2C98E0ECF3E053
:1001B0003197F1F71FB7F8942C9A2498E0E8F0E013
:1001C0003197F1F783B184FF9FEF1FBF24982C98DC
:1001D000E0E4F3E03197F1F7892F0C94043807FF3E
:1001E00031772E736C6F7400CA00F600249A2C9835
:1001F0001FB7F894ECE0F0E03197F1F78894879519
:1002000010F424982C9AE2E1F0E03197F1F703B171
:1002100004FD8068E6E6F0E03197F1F724982C9A27
:10022000E4E0F0E03197F1F71FBF0C9404380A9234
:100230000FB60A920F900F900A940092160109903F
:100240000FBE09906894089502FF6D2BEF000038EF
:10025000AF3F043C1A3803FF75642A0024010038BC
:10026000AB38F938DA39D338BE38F038DA39DB3818
:1002700097391A3804FF756D61782B010038B13E4B
:10028000563930384401BE38D3381A3804FF756DFA
:10029000696E3A010038B13E613930385001BE38DC
:1002A000D3381A380038373800800D3A14393038CE
:1002B0005C01373801001A3845391A380AFF6E6177
:1002C0006D653E666C61677346010038BA3B37382E
:1002D00000FF0D3A1A3803FF766572005E010038A0
:1002E000D102FA03963FA53E7338DF02293FAF3FA4
:1002F0001803200337382E00090336034103300466
:10030000A53E7B38963FE702FA031A3804FF6E6F6A
:100310006F706B0100381A3806FF756E757365646F
:10032000860100387B3A0B3F8D391A380200746F12
:100330008C0100383F04B83F9F3E73383038AA0123
:100340003F07A4014A071A380038F038AB38B60125
:10035000F938BA3BAB38B601B601BA3B24381A3883
:1003600007FF692D63656C6C2B0096010038293AF4
:100370001A3808FF69636F6D70617265B0010038EB
:10038000F938C938F0380D393038CA01BA3ED33897
:1003900045391A38BE384E3909083038EF01893AE4
:1003A000C9387338F201C938BA3BF201AB38373873
:1003B000000156393038E001BE383738FF000D3AB9
:1003C0000D393038E701BA3E4539C23A1A38293A70
:1003D000BE38823CBE3837380200A83AD001BA3E57
:1003E0004E391A380038AB383738FF000D3A613FC4
:1003F000BE38E73A3738FF000D3A613FE73A163A20
:100400001A3801FF2A00B9010038A039D3381A3848
:1004100001FF6A0001020038643A37380700973953
:100420007338643A373809009739733897391A386E
:1004300004FF6461627308020038AB381B3930383E
:10044000220229021A3807FF646E6567617465002D
:10045000180200382A3C373801004E39043C1A385B
:1004600005FF636D6F76650023023602BF93AF937D
:10047000E991F991A991B991092F082B21F01D91CA
:1004800011930197E1F7AF91BF91899199910C94E4
:10049000043805FF32737761700030020038DB38B2
:1004A000F938DB38F0381A380AFF726566696C6C07
:1004B0002D74696249020038770237385A00870480
:1004C0007D027B384E39CA3E7B3845391A380AFFDF
:1004D000736F757263652D74696254020038770218
:1004E0007D0273381A3803FF74696200670242386C
:1004F000170104FF2374696273024238710106FF19
:1005000065653E72616D790200384E39893AC938A5
:100510004D3BC9387B38823CBE38823CBE38B73A46
:100520008702BA3E1A3808FF696E69742D72616DD0
:100530007F02003837386800F03A37381C00FE393F
:1005400084021A380BFF656E7669726F6E6D656E88
:10055000740093024238420009FF776F72646C693D
:100560007374730000000038373808001A3804FF2D
:100570002F706164AC0200387B3AD03E8D391A3856
:1005800005FF2F686F6C6400B7020038D03E0B3F48
:100590008D391A380AFF666F7274682D6E616D6549
:1005A000C0020038C7030700616D666F727468008F
:1005B0001A3807FF76657273696F6E00CA020038D9
:1005C00037383D001A3803FF63707500D9020038D0
:1005D0003738370026041A3808FF6D63752D696EA9
:1005E000666FE3020038373833001A3805FF2F757D
:1005F00073657200EC020038373826001A3803FFA2
:10060000686C6400A2024238730104FF686F6C6476
:10061000FF0200380303AB3873382F3AAB38F93890
:10062000BE387B38F03887381A3802FF3C23050380
:100630000038D03E03037B381A3801FF230015032E
:100640000038A53E73389D03DB3837380900C938B8
:10065000683930382E03373807009739373830007B
:10066000973909031A3802FF23731D03003820034A
:10067000B13E163A1439303837031A3802FF233E98
:1006800033030038BA3E03037338D03EC9388D397E
:100690001A3804FF7369676E3E0300381B3930381F
:1006A000540337382D0009031A3803FF642E7200F3
:1006B00049030038F938C23E1C0218033603DB3800
:1006C0004D034103F038C9388D399F3F30041A3843
:1006D00002FF2E7255030038F938AF3FF038590346
:1006E0001A3802FF642E680300384E395903963FCA
:1006F0001A3801FF2E0071030038AF3F74031A3817
:1007000003FF75642E00790300384E398D03963F40
:100710001A3804FF75642E7280030038F938180304
:1007200036034103F038C9388D399F3F30041A38F9
:1007300006FF75642F6D6F6489030038F9384E39F0
:100740000239BC39F038BE38F938BC39F0381A38BB
:1007500006FF64696769743F980300384E3FAB3801
:10076000373839007239373800010D3A9739AB38CC
:10077000373840017239373807010D3A8D3937382B
:1007800030008D39AB38A53E733856391A380038E9
:1007900002392604F038C938293AFE399739293AFE
:1007A000F9381A3802FF732CA8030038AB38D90384
:1007B0001A3800384A07AB38FE39C23E053A8D393F
:1007C000F9384E3909083038EC03893AAB387338B8
:1007D0004A07823CB73AE603F03822393038F3034F
:1007E000AB3892384A07D3381A3805FF69747970E4
:1007F0006500D2030038AB38FE39C23E053A8D3968
:10080000F9384E39090830380E04893AAB38BA3B0A
:10081000AB381B041704293AB73A0604F0382239DA
:1008200030381504AB38BA3B1B04D3381A380038BB
:10083000E73A1B041A3800383738FF000D3ADA3E21
:100840001A3806FF69636F756E74F5030038AB38AC
:10085000293ABE38BA3B1A3804FF7479706521040E
:100860000038813F090830383B04893A9A3A923877
:10087000DA3EB73A36041A3801FF27002C04003854
:10088000AB05ED056306C73F30384804D3381A3846
:100890003738F3FF663D05FF63736B6970003C04F6
:1008A0000038F938AB3830385F04C938923802392B
:1008B000C73F30385F04CE3F9C0529385204F038DA
:1008C000D3381A3805FF637363616E004B04003838
:1008D000F938C938AB3892380239C73F1439303843
:1008E0007C04BE382F3ABE38C9381B391439303829
:1008F0007C04293A29386A04EA38C9388D39F03835
:10090000D3381A3806FF6163636570746204003877
:10091000C93897392F3AC938EB3EAB38C804143977
:100920003038BA04AB3837380800C73F3038AA042B
:10093000D338DB38B13E7239F938DB38DB38F03880
:100940003038A804C0042F3AF938C938F0383E01CD
:100950002938B804AB383C3F68393038B104D33853
:100960003C3FAB38DA3EC9388738293AC9384A01A2
:1009700029388C04D338EA38BE388D39893F1A3883
:10098000003837380800AB38DA3E963FDA3E1A387E
:100990000038AB3837380D00C73FBE3837380A004B
:1009A000C73F163A1A3806FF726566696C6C820496
:1009B000DF3D1A00A83DB43D04FF63686172D304B3
:1009C0000038AB05D33892381A3806FF6E756D6261
:1009D0006572DC040038A53E7338F9382E05F93805
:1009E00041052E05F038163AF938AB38143930384D
:1009F0000105BA3EF038D338F038A53E7B384E3981
:100A00001A380C3B4E394E391B3B5F05B338303832
:100A10002305CE3FC73F30381A05923837382E00AD
:100A2000C73F30381B05F038303817052902D33F4F
:100A300029382905D338BA3EF038D338F038A53EE6
:100A40007B384E391A38BA3EF038303828050F3E18
:100A5000CE3FF038A53E7B3845391A380038C938C2
:100A6000923837382D00C73FAB38F93830383A055F
:100A7000CE3F9C05F0381A384C380A0010000200AE
:100A80000A000038C9389238373823008D39AB381E
:100A90004E39373804003F3E303857053C0597390A
:100AA000BA3BA53E7B38CE3F9C0529385805D33844
:100AB0001A3807FF3E6E756D62657200E5040038F6
:100AC000AB3830387805C9389238AD03143930382E
:100AD0006B05D3381A38F9384E02A53E73382F010A
:100AE000F03827014E02373801009C05293860058F
:100AF0001A3805FF70617273650059050038F938BE
:100B00009205CA3E73389C05F0386704AB38293A21
:100B1000CA3E533ACE3F9C051A3806FF736F757272
:100B200063657905DF3D1600A83DB43D07FF2F73CF
:100B30007472696E67008D050038DB38C9389739E3
:100B4000DB38DB388D391A380AFF70617273652D16
:100B50006E616D65960500383C3FAF051A38003868
:100B6000F9389205CA3E73389C0502395004F038B2
:100B70006704B13E97399205D3388D39CA3E7B3828
:100B80001A3803FF73703000A40569380600A83DC9
:100B9000B43D02FF7370C1055238080003FF727044
:100BA0003000C9050038D60573381A3852380400A9
:100BB00005FF646570746800CE050038C5057B3A92
:100BC0008D39FE392F3A1A380DFF646F2D72656327
:100BD0006F676E697A657200D80500383738F90595
:100BE00037385A00830914393038F805BA3E780688
:100BF0001A380038DB38DB38B13E0C3BDB382438A0
:100C00001B3BDB38AB387806C73F30380A06D33891
:100C10004E391A38EA38EA3845391A3809FF696E08
:100C20007465727072657400E4050038AB05AB380A
:100C300030382506ED059F3E733830382006B60162
:100C4000BA3B2438733F29381606BA3E1A3805FFD6
:100C5000723A6E756D000E064C388A0160076007A7
:100C600006FF723A646E756D27064C388A01BF3FE5
:100C7000BF3F07FF7265633A6E756D00300600383E
:100C8000EA0430384B06CE3FC73F303849062C06C1
:100C90001A3835061A3878061A3808FF7265633A2A
:100CA000776F726439060038EE06AB381439303885
:100CB0005C06D33878061A3863061A3806FF723A8B
:100CC000776F72644D064C3867066B06BF3F00387D
:100CD000D33824381A3800381B39303871064A079F
:100CE0001A3824381A3806FF723A6661696C5E0653
:100CF0004C387C067C067C0600383738F3FF663DAE
:100D00000FFF7365617263682D776F72646C69732E
:100D1000740073060038F9384E3937389F06F038BA
:100D2000BC06AB38143930389906BA3ED3384E3940
:100D30001A38AB38E306BE38650152011A3800385C
:100D4000F938D338B13E0239D706BF013038AD0685
:100D5000F038D3384E3945391A38BA3EF0384E3962
:100D60001A3811FF74726176657273652D776F7230
:100D7000646C69737400800600384D3BAB383038C2
:100D8000CD06B13E0C3BBE3824381B3BDB38303837
:100D9000CD06E909BA3B2938BE06BA3E1A380BFF20
:100DA0006E616D653E737472696E6700B1060038DE
:100DB00026043738FF000D3A1A3807FF6E66613E89
:100DC00063666100CF060038E909293A1A3809FF3D
:100DD00066696E642D6E616D6500DD06003837381A
:100DE000FA0637384800830914393038F906BA3E14
:100DF0004E391A380038F938B13EF0388A06AB3827
:100E000030380707F938EA38EA38F03845391A38FF
:100E100006FF6E6577657374E7064238750106FF55
:100E20006C617465737408074238790108FF2863A0
:100E30007265617465290F070038AB057308AB381C
:100E40000D07823C7B3858080D077B381A380100A3
:100E50005C00160700389205EA38CA3E7B381A381B
:100E60000100280027070038373829007E05BA3EE0
:100E70001A3807FF636F6D70696C650030070038C2
:100E8000F038AB38B601F938BA3B4A071A3801FFD7
:100E90002C0039070038FA3E613BFA3E293AA4019A
:100EA000FB3E1A3803005B275D00470700383F040C
:100EB00060071A3807006C69746572616C0052072C
:100EC00000383F0737384A071A380800736C6974CE
:100ED0006572616C5A0700383F07C703D5031A389B
:100EE0000038FA3E3F07FFFF1A380038733FFA3EDA
:100EF000BE38613B1A380038FA3E1A380038733F62
:100F00004A071A38050061686561640065070038A2
:100F10003F07293870071A380200696682070038CF
:100F20003F07303870071A380400656C73658C070A
:100F300000383F0729387007BE3875071A38040093
:100F40007468656E9407003875071A380500626585
:100F500067696E009F0700387B071A3805007768BD
:100F6000696C6500A60700388F07BE381A3806007E
:100F7000726570656174AE070038D007A3071A3830
:100F80000500756E74696C00B70700383738303863
:100F90004A077E071A380500616761696E00C0075D
:100FA00000383F0729387E071A380200646FCB07E4
:100FB00000383F07893A7B074E3933081A38040056
:100FC0006C6F6F70D50700383F07B73A1A081A38A8
:100FD00005002B6C6F6F7000DF0700383F07A83AE1
:100FE0001A081A3805006C6561766500E807003854
:100FF0003F07C23A870733081A3803003F646F007F
:10100000F20700383F0709088F07D807BE383308B2
:101010001A380038B13EC73FAB38F93830381108BC
:10102000BA3EF038F7391A3807FF656E646C6F6F97
:101030007000FD0700387E072708B33830382308D2
:10104000A30729381C081A3802FF6C3E1408003820
:101050004608733873383738FEFF4608533A1A3853
:1010600002FF3E6C24080038D33F4608533A460836
:1010700073387B381A3803FF6C70300030086938D9
:101080003E00803D8A3D02FF6C703B0842387B0188
:1010900006FF637265617465430800381C077C08AD
:1010A0003F074C381A3806FF686561646572480866
:1010B0000038FA3EF938F938AB38223930386A0846
:1010C000AB38373800FF163AD903F0384D3B4A07A2
:1010D000F0381A383738F0FF663D07FF776C7363D6
:1010E0006F7065005308DF3D3C00803D8A3D06FF80
:1010F00072657665616C6D0800380D07823C733847
:10110000B338303887080D077338BE38293B1A3892
:101110000500646F65733E00770800383F07A0083C
:101120003F070E943F0795081A389A938A93CB018C
:1011300001967F916F91BF93AF93DB010C940438BC
:101140000038F0380D07823C73384D3BE306613BB5
:101150001A3801FF3A00880800381C07B708D3384E
:101160001A3807FF3A6E6F6E616D6500A908003886
:10117000FA3EAB3814077B383F070038CC081A38E2
:1011800001003B00B10800383F071A38D4087C083A
:101190001A3801FF5D00C0080038CE3F9F3E7B3803
:1011A0001A3801005B00C90800384E399F3E7B3871
:1011B0001A3808FF7661726961626C65D10800387F
:1011C0000B3FEB08D33F143F1A3808FF636F6E7371
:1011D00074616E74D90800381C077C083F074238D8
:1011E0004A071A3804FF75736572E50800381C0752
:1011F0007C083F0752384A071A3807007265637542
:1012000072736500F2080038140773384A071A38F9
:1012100009FF696D6D65646961746500FD080038DA
:10122000AA094D3BAB38BA3B3738FF7F0D3ABE3881
:10123000613B1A3806005B636861725D080900381B
:101240003F073738E0044A071A38060061626F72B8
:1012500074221A090038723E3F073C091A3805FF0C
:1012600061626F727400250900384539663D06FFDA
:101270003F61626F72742F090038DB3830384209E1
:10128000FA033409BA3E1A3809FF6765742D73747E
:1012900061636B0037090038AB38823CBE384D3B88
:1012A000AB38F9384E39BE38090830386209893A06
:1012B0009A3A2F3AAC3EC93897394D3BBE3845393A
:1012C000A83A5809BA3EF0381A3809FF7365742DE8
:1012D000737461636B0044090038B13E293BBE382A
:1012E0004E39090830387A09893A823CC23E293B96
:1012F000B73A7509D3381A3809FF6D61702D7374C8
:1013000061636B0065090038AB38823CBE384D3BE9
:10131000AC3E813F090830389F09893A9A3A4D3BE3
:10132000BE38F93802392438B33830389B09F038E0
:10133000D338C23A1A38F038D33FA83A8E09D33896
:101340004E391A380BFF6765742D63757272656EBE
:1013500074007C090038373844004D3B1A3809FFC7
:101360006765742D6F7264657200A20900383738A2
:1013700048004B091A3807FF636F6D706172650092
:10138000AF09C209BF93AF938C0189919991DC0198
:10139000899199919C0189919991FC01ED90F1902D
:1013A000EF1451F40A9519F02A95C1F701C02A9556
:1013B000022B11F4882702C08FEF00C0982FAF9145
:1013C000BF910C94043807FF6E66613E6C66610045
:1013D000BB090038D706293AFE3997391A380BFF6E
:1013E0007365742D63757272656E7400E30900385D
:1013F00037384400293B1A3808FF776F72646C69EC
:101400007374EF090038033F4E39C938293BAB38B4
:10141000823CA401043F1A380EFF666F7274682D77
:10142000776F72646C697374FC094238460009FF77
:101430007365742D6F72646572000C0A003837385A
:1014400048006C091A380FFF7365742D7265636F5D
:10145000676E697A65727300170A003837385A0068
:101460006C091A380FFF6765742D7265636F676EBC
:10147000697A65727300230A003837385A004B09BD
:101480001A3804FF636F6465320A00381C077C0851
:10149000FA3EB6014A071A3808FF656E642D636F7D
:1014A0006465410A00383F070C943F0704381A3836
:1014B00008FF286D61726B6572294C0A69386600F5
:1014C000803D8A3D0800706F7374706F6E65580AB6
:1014D0000038AB05ED05AB38F938B601B601BA3BBB
:1014E0002438F038B601BA3B4A071A380BFF61704E
:1014F000706C7475726E6B657900620A0038B400A6
:10150000893C6F011A3802FF2E73760A0038DD0518
:10151000F23D963FDD054E3909083038950A893A83
:101520009A3A763CF23DB73A900A1A380AFF627549
:10153000696C642D696E666F830A0038C7031500F5
:101540004F63742031372C20323031352031343A1A
:1015500032363A313600FA031A3805FF706C61638F
:101560006500960A0038B13E8738293ABE38350200
:101570001A3804FF776F7264AD0A0038AF050B3F6D
:10158000B20A0B3F1A3804FF26313938D53F4238AA
:10159000C60004FF26313932C30A4238C00003FFB7
:1015A00024383000C90A4238800003FF2434300058
:1015B000CF0A4238400003FF24323000D50A4238B7
:1015C000200003FF24313000DB0A4238100003FF03
:1015D00024303800E10A4238080003FF2430340088
:1015E000E70A4238040003FF24303200ED0A423893
:1015F000020003FF24303100F30A4238010004FFE7
:1016000026313933F90A4238C10003FF243830004B
:10161000FF0A4238800003FF24343000050B4238B3
:10162000400003FF243230000B0B4238200003FF40
:1016300024313000110B4238100003FF24303800F1
:10164000170B4238080003FF243034001D0B4238CA
:10165000040003FF24303200230B4238020003FF52
:1016600024303100290B4238010004FF263139347F
:101670002F0B4238C20003FF24433000350B4238A1
:10168000C00003FF243330003B0B4238300003FF1F
:1016900024303800410B4238080003FF2430360064
:1016A000470B4238060003FF243031004D0B42380F
:1016B000010004FF26313936530B4238C40004FFC1
:1016C00026313839590B4238BD0003FF2446450006
:1016D0005F0B4238FE0004FF26313834650B423878
:1016E000B80004FF263138386B0B4238BC0003FFCA
:1016F00024383000710B4238800003FF243430005E
:10170000770B4238400003FF243230007D0B423813
:10171000200003FF24313000830B4238100003FF08
:1017200024303800890B4238080003FF243034008D
:101730008F0B4238040003FF24303100950B4238F0
:10174000010004FF263138359B0B4238B90003FFF6
:1017500024463800A10B4238F80003FF2430330040
:10176000A70B4238030004FF26313837AD0B42384F
:10177000BB0004FF26313836B30B4238BA0003FFF2
:1017800024464500B90B4238FE0003FF24303100E7
:10179000BF0B4238010004FF26313131C50B4238FE
:1017A0006F0003FF24323000CB0B4238200003FFD0
:1017B00024303400D10B4238040003FF24303200BF
:1017C000D70B4238020003FF24303100DD0B4238D2
:1017D000010003FF26353400E30B4238360003FFD7
:1017E00024323000E90B4238200003FF243034005B
:1017F000EF0B4238040003FF24303200F50B42386F
:10180000020003FF24303100FB0B4238010004FFCB
:1018100026313238010C4238800003FF2443300067
:10182000070C4238C00003FF243330000D0C42384F
:10183000300003FF24303300130C4238030004FF50
:1018400026313239190C4238810003FF2438300028
:101850001F0C4238800003FF24343000250C42382E
:10186000400003FF243138002B0C4238180003FFDE
:1018700024303700310C4238070004FF2631333062
:10188000370C4238820003FF243830003D0C4238C8
:10189000800003FF24343000430C4238400004FF32
:1018A00026313332490C4238840004FF2631333666
:1018B0004F0C4238880004FF26313338550C42382B
:1018C0008A0004FF263133345B0C4238860003FF64
:1018D00026363700610C4238430003FF24383000BD
:1018E000670C4238800003FF243031006D0C423811
:1018F000010004FF26313132730C4238700003FFBF
:1019000024303400790C4238040003FF24303200C4
:101910007F0C4238020003FF24303100850C42382E
:10192000010003FF263535008B0C4238370003FFDA
:1019300024303400910C4238040003FF243032007C
:10194000970C4238020003FF243031009D0C4238CE
:10195000010004FF26313736A30C4238B00003FFE4
:1019600024433000A90C4238C00003FF2433300068
:10197000AF0C4238300003FF24303300B50C42383E
:10198000030004FF26313737BB0C4238B10003FF98
:1019900024383000C10C4238800003FF243430006A
:1019A000C70C4238400003FF24303800CD0C4238C9
:1019B000080003FF24303700D30C4238070004FF2F
:1019C00026313738D90C4238B20004FF263138307E
:1019D000DF0C4238B40004FF26313739E50C4238B9
:1019E000B30004FF26313832EB0C4238B60003FF57
:1019F00024343000F10C4238400003FF2432300020
:101A0000F70C4238200003FF24313000FD0C42382F
:101A1000100003FF24303800030D4238080003FF94
:101A200024303400090D4238040003FF2430320012
:101A30000F0D4238020003FF24303100150D4238EB
:101A4000010004FF263132341B0D42387C0003FFB5
:101A500024433000210D4238C00003FF24323000FF
:101A6000270D4238200003FF243046002D0D423858
:101A70000F0004FF26313230330D4238780004FF66
:101A800026313232390D42387A0003FF24383000D3
:101A90003F0D4238800003FF24343000450D4238AA
:101AA000400003FF243230004B0D4238200003FF7A
:101AB00024313000510D4238100003FF243038002B
:101AC000570D4238080003FF243037005D0D4238BF
:101AD000070004FF26313233630D42387B0003FFD9
:101AE00024343000690D4238400003FF24303700B1
:101AF0006F0D4238070004FF26313236750D42382B
:101B00007E0003FF243230007B0D4238200003FFAB
:101B100024313000810D4238100003FF243038009A
:101B2000870D4238080003FF243034008D0D423801
:101B3000040003FF24303200930D4238020003FFFB
:101B400024303100990D4238010003FF263830005F
:101B50009F0D4238500003FF24383000A50D423855
:101B6000800003FF24343000AB0D4238400003FFF7
:101B700024323000B10D4238200003FF2431300000
:101B8000B70D4238100003FF24303800BD0D423835
:101B9000080003FF24303400C30D4238040003FF63
:101BA00024303300C90D4238030004FF2631323798
:101BB000CF0D42387F0003FF24303200D50D42386C
:101BC000020003FF24303100DB0D4238010003FF27
:101BD00026333700E10D4238250003FF2633360057
:101BE000E70D4238240003FF26333500ED0D42385F
:101BF000230003FF26343000F30D4238280003FF92
:101C000026333900F90D4238270003FF2633380008
:101C1000FF0D4238260003FF26343300050E4238FC
:101C20002B0003FF263432000B0E42382A0003FF3C
:101C300026343100110E4238290003FF26373200C6
:101C4000170E4238480003FF263731001D0E423878
:101C5000470003FF26373000230E4238460003FFBB
:101C600026363900290E4238450003FF243830005B
:101C70002F0E4238800003FF24343000350E4238E6
:101C8000400003FF243038003B0E4238080003FFB9
:101C900024303700410E4238070003FF2636380053
:101CA000470E4238440003FF244330004D0E4238B3
:101CB000C00003FF24333000530E4238300003FFCE
:101CC00024303300590E4238030004FF26313130EE
:101CD0005F0E42386E0003FF24303400650E423838
:101CE000040003FF243032006B0E4238020003FF71
:101CF00024303100710E4238010003FF26353300D5
:101D0000770E4238350003FF243034007D0E423810
:101D1000040003FF24303200830E4238020003FF28
:101D200024303100890E4238010004FF263130355D
:101D30008F0E4238690003FF24304300950E42386D
:101D40000C0003FF243033009B0E4238030003FFD6
:101D500026363100A10E42383D0003FF2430330007
:101D6000A70E4238030003FF26363000AD0E42387E
:101D70003C0003FF24303300B30E4238030004FF5D
:101D800026313034B90E4238680003FF2430370062
:101D9000BF0E4238070004FF26313039C50E4238E5
:101DA0006D0003FF24464600CB0E4238FF0004FFBF
:101DB00026313038D10E42386C0003FF24374600FC
:101DC000D70E42387F0004FF26313037DD0E42380F
:101DD0006B0003FF24464600E30E4238FF0003FF7A
:101DE00026353900E90E42383B0003FF2430370026
:101DF000EF0E4238070003FF26373800F50E423851
:101E00004E0003FF26373700FB0E42384D0003FF1C
:101E100024383000010F4238800003FF24343000A2
:101E2000070F4238400003FF243031000D0F4238C5
:101E3000010003FF26373600130F42384C0003FF22
:101E400024383000190F4238800003FF243430005A
:101E50001F0F4238400003FF24323000250F423864
:101E6000200003FF243130002B0F4238100003FF05
:101E700024303800310F4238080003FF243034008A
:101E8000370F4238040003FF243033003D0F42383F
:101E9000030003FF26393600430F4238600003FF7A
:101EA00024383000490F4238800003FF24343000CA
:101EB0004F0F4238400003FF24323700550F42389D
:101EC000270003FF243130005B0F4238100003FF6E
:101ED00024303800610F4238080004FF26313030CA
:101EE000670F4238640003FF243830006D0F42381A
:101EF000800003FF24343000730F4238400003FF9A
:101F000024323000790F4238200003FF243038009B
:101F10007F0F4238080003FF24303400850F423819
:101F2000040003FF243032008B0F4238020003FF0D
:101F300024303100910F4238010004FF2631303245
:101F4000970F4238660003FF263937009D0F42384D
:101F5000610003FF24383000A30F4238800003FFE4
:101F600024304600A90F42380F0003FF2639350000
:101F7000AF0F42385F0003FF24383000B50F4238FE
:101F8000800003FF24343000BB0F4238400003FFC1
:101F900024323000C10F4238200003FF24313000CA
:101FA000C70F4238100003FF24303800CD0F4238ED
:101FB000080003FF24303400D30F4238040003FF2D
:101FC00024303200D90F4238020003FF24303100A0
:101FD000DF0F4238010003FF26393300E50F423896
:101FE0005D0003FF26383700EB0F4238570003FF30
:101FF00024383000F10F4238800003FF24343000D1
:10200000F70F4238400003FF24313000FD0F423803
:10201000100003FF2430380003104238080003FF8B
:102020002430340009104238040003FF2430320009
:102030000F104238020003FF2430310015104238DF
:10204000010003FF263835001B104238550003FFFE
:102050002434300021104238400003FF2432300085
:1020600027104238200003FF243130002D10423861
:10207000100003FF2430320033104238020003FF07
:102080002430310039104238010003FF2638340073
:102090003F104238540003FF2430380045104238C6
:1020A000080003FF243034004B104238040003FFC3
:1020B0002430320051104238020003FF2430310036
:1020C00057104238010003FF263833005D104238B4
:1020D000530003FF24304500631042380E0003FF15
:1020E0002430310069104238010003FF26373500E3
:1020F0006F1042384B0003FF26373400751042380A
:102100004A0003FF263632007B1042383E0003FFB0
:102110002636350081104238410003FF2636340050
:1021200087104238400003FF263633008D104238B6
:102130003F0003FF2433300093104238300003FF88
:102140002430380099104238080003FF243034004E
:102150009F104238040003FF24303200A51042389B
:10216000020003FF24303100AB104238010001FFB0
:102170003200B1104238020001FF3400B71042387B
:10218000040001FF3600BC104238060001FF380091
:10219000C1104238080002FF3130C61042380A0030
:1021A00002FF3132CB1042380C0002FF3134D01024
:1021B00042380E0002FF3136D5104238100002FFBF
:1021C0003138DA104238120002FF3230DF10423864
:1021D000140002FF3232E4104238160002FF32349B
:1021E000E9104238180002FF3236EE1042381A0069
:1021F00002FF3238F31042381C0002FF3330F8106F
:1022000042381E0002FF3332FD104238200002FF28
:10221000333402114238220002FF333607114238AC
:10222000240002FF33380C114238260002FF3430FC
:1022300011114238280002FF3432161142382A00A8
:1022400002FF34341B1142382C0002FF34362011B7
:1022500042382E0002FF343825114238300002FF88
:1022600035302A1142383200027F69732F1100384D
:102270009F3E7338303848113738560737380100D9
:102280006B063738BF3D3738FFFF6B0629384A11D8
:102290003F04BF3D1A3806FF7374617475733411BF
:1022A0005238000008FF666F6C6C6F7765724B11D7
:1022B000523802000038823C7338AB387338293A00
:1022C000F9381A3804FF70617373521142385A1189
:1022D0000038F93ACC057338843A6E3A1A3804FF5C
:1022E00077616B656211423868110EFF6D756C7411
:1022F000697461736B70617573656F110038643A4E
:102300007B3ACC057B3858117338AB387338293A8F
:10231000F9381A3804FF73746F707511003866113C
:1023200050117B38113D1A380AFF7461736B2D739D
:102330006C6565708A1100386611BE387B381A38B2
:102340000AFF7461736B2D6177616B6594110038BE
:102350007311BE387B381A3805FF63656C6C2D002D
:10236000A01100380F3E823C0F3E1A3808FF61630F
:10237000746976617465AC110038AB38C410973954
:102380007338B111C938BF1097397338B111F038AB
:10239000C938293A7B38C9387B38C938C9109739C8
:1023A0007B38A7111A3805FF7461736B3A00B611B8
:1023B00000384D080B3F4A07373826009739143F3D
:1023C000143F0B3F4A07143F0B3F4A07CE3F143FD1
:1023D000A0080E9495081A3807FF7463623E74696A
:1023E0006400D3110038BA3B1A3807FF7463623EA9
:1023F00073703000EC110038293ABA3B1A3807FFE5
:102400007463623E72703000F5110038BA1097396B
:10241000BA3B1A3808FF7463623E73697A65FF112C
:102420000038AB38F211BE380512293ABE388D3962
:102430001A3809FF7461736B2D696E6974000A1292
:102440000038AB38F211C93810124E39803EAB3823
:10245000FB11C938F2113738060097397B38AB3891
:10246000FB11B111C938F2113738080097397B38A0
:10247000AB380512C938F2113738040097397B3868
:1024800037380A00C938F21137380C0097397B38D1
:10249000F2119B111A3806FF73696E676C65191289
:1024A000003837388A013738113DBF3D1A3805FFEB
:1024B0006D756C7469004B12003837387E113738EF
:1024C000113DBF3D1A3808FF6F6E6C797461736BF4
:1024D00057120038731150117B38F03A58117B387D
:1024E0001A3808FF616C736F7461736B6312003884
:1024F0003738113DCC3DF938501258117338C9386E
:1025000058117B38BE38823C7B38F0383738113D63
:10251000BF3D1A3805FF7461736B73007112003888
:102520005011AB38AB38F23DAB387338AB38731160
:10253000C73F3038A612C7030900202072756E6E9F
:10254000696E6700FA03D3382938BC126611C73F99
:102550003038B412C703090020736C656570696E6A
:102560006700FA032938BC12C70309002020756EE2
:102570006B6E6F776E003C09893F823C7338C938B7
:10258000C938C73F30389212D338D338C7030F0049
:102590004D756C74697461736B657220697320008A
:1025A000FA033738113DCC3D37388A01C73F303800
:1025B000DE12C70304006E6F7420FA03C70307001E
:1025C00072756E6E696E6700FA031A38047F636174
:1025D00073658A1200384E391A38027F6F66E61228
:1025E0000038293AF9383738C9383738FFFF6B06D1
:1025F0003738C73F3738FFFF6B0637388F07373814
:1026000001006B063738D3383738FFFF6B06F038D8
:102610001A38057F656E646F6600ED120038F93870
:1026200037389807373801006B06F0381A38077FBB
:10263000656E646361736500091300383738D338F9
:102640003738FFFF6B064E39090830382F13893AA7
:102650003738A307373801006B06B73A28131A3802
:1026600005FF72616E676500171300380C3BAB38CD
:10267000AB381B3B3F3E143930383F13F7391A381B
:1026800002FF6D73301300384E39090830384D138E
:10269000893A113D023BB73A49131A3807FF3C62A9
:1026A00075696C647300401300381C077C08D83FC0
:1026B0004A071A3808FF6269746D61736B3A4E13EA
:1026C000003854134A074A07A0080E949508AB38FF
:1026D000BA3BBE38B601BA3B1A3808FF706F727445
:1026E00070696E3A5A130038CE3FC9383738070040
:1026F0000D3A373AF93837380300463A9739F03807
:1027000060131A3804FF686967686D130038AB38C6
:102710009238DB38163ABE3887381A3803FF6C6FA8
:10272000770082130038AB389238DB38F7390D3A2E
:10273000BE3887381A3805FF70756C7365008E13C4
:102740000038F938B13E8613F0384E390908303870
:10275000AD13893A023BB73AAA1392131A3807FF0E
:1027600069735F6C6F773F009B13003892380D3AA6
:1027700014391A3808FF69735F686967683FAF13D7
:1027800000389238C9380D3AC73F1A3808FF7761C8
:1027900069745F6C6F77BA130038B13EB513303887
:1027A000CD13BA3E1A380DFF776169745F686967A7
:1027B000685F616C6C00C6130038B13EC0133038DE
:1027C000DD13BA3E1A3804FF70696E21D313003846
:1027D000AB38F9389238C938F7390D3AF9380D3A2B
:1027E000F038163AF03887381A380AFF70696E5F89
:1027F0006F7574707574E31300382F3A86131A38A6
:1028000009FF70696E5F696E70757400F5130038AA
:102810002F3A92131A3809FF70696E5F686967680A
:102820003F00001400382F3A2F3A92380D3A1A38E8
:1028300008FF70696E5F6C6F773F0B1400382F3A9A
:102840002F3A9238F7390D3A1A3804FF70696E4002
:10285000181400382F3A2F3A92380D3A1A3806FFDA
:10286000746F67676C6525140038B13E12143038F8
:102870003C14921329383D1486131A380EFF7069E0
:102880006E5F70756C6C75705F6F66662F140038C4
:10289000B13E071492131A380DFF70696E5F7075A0
:1028A0006C6C75705F6F6E003E140038B13E07149B
:1028B00086131A380BFF70696E3E6368616E6E6531
:1028C0006C004C140038D3387E391A3808FF616424
:1028D000632E696E69745A14003837384000250D2C
:1028E000873837388700430D87381A380CFF616402
:1028F000632E696E69742E70696E66140038C9386B
:10290000C938861307141A3808FF414453435F4DF2
:10291000534B76144238400009FF6164632E737490
:1029200061727400841400388A14430D86131A38B7
:1029300008FF6164632E776169748C140038430D5D
:1029400092388A140D3A143930389F141A380CFF13
:102950006164632E6368616E6E656C219814003843
:10296000373807000D3A250D923837380700F73908
:102970000D3A163A250D87381A3807FF6164632E21
:1029800067657400A71400386214AF1493149E1482
:102990003D0D73381A380BFF616E616C6F675F72A3
:1029A00065616400BD140038B13E7E14C3141A384A
:1029B00007FF6275666665723A00CB140038DF085F
:1029C000CE3FAC3E8D39143F1A3807FF2B66696540
:1029D0006C643A00D81400384D08C9384A07973952
:1029E000A0080E949508BA3B97391A380FFF626514
:1029F00067696E2D73747275637475726500E51482
:102A000000384D08FA3E4E39D83F4A07A0080E94C8
:102A10009508BA3B1A380DFF656E642D7374727594
:102A2000637475726500F6140038BE38613B1A385D
:102A300007FF636669656C643A000B150038CE3F8A
:102A4000EB141A3806FF6669656C643A181500388D
:102A5000BA10EB141A3807FF326669656C643A00E5
:102A600022150038BF10EB141A3806FF6D61726B27
:102A700065722B150038AA094D3BFA3E4D085E0AD7
:102A80004E39893A9A3A4D3B4A07BA10A83A42154C
:102A90004A074A07A0080E9495085E0A4E39893AFB
:102AA000AB38BA3B9A3A293B293ABA10A83A5015A2
:102AB000AB38BA3BA401FB3E293ABA3BAA09293BF1
:102AC0001A3804FF4144434835154238190004FFC1
:102AD0004144434C61154238180003FF6F722100D6
:102AE00067150038AB389238DB38163ABE3887386D
:102AF0001A3807FF70696E3E706F73006D150038ED
:102B0000D3387E391A3808FF6164632E696E6974A0
:102B10007915003837386000250D87383738870039
:102B2000430D87381A380CFF6164632E696E69742F
:102B30002E70696E83150038C938C938861307149A
:102B40001A3808FF414453435F4D534B93154238A5
:102B5000400009FF6164632E737461727400A115F3
:102B60000038A715430D71151A3808FF6164632EEC
:102B700077616974A9150038430D9238A7150D3A8D
:102B800014393038BC151A380CFF6164632E636841
:102B9000616E6E656C21B5150038373807000D3A47
:102BA000250D923837380700F7390D3A163A250DBA
:102BB00087381A3809FF6164632E67657431300005
:102BC000C4150038CC15B015BB156B1592386515BA
:102BD0009238C910373A9739C410463A1A3807FF65
:102BE0006164632E67657400DA150038CC15B01582
:102BF000BB15651592381A3806FF3164656C61792A
:102C0000EF154238A70104FF6D6F6465FC1542386B
:102C1000A90107FF7375626D6F6465000316423882
:102C2000AB010BFF7375626D61785F6D6F6465005A
:102C300009164238AD010BFF73656E7369746976CE
:102C40006974790011164238AF0108FF6D61785F31
:102C50006D6F64651B1642380A0003FF73657400CC
:102C60002516071508000BFF7365742E63756574D0
:102C7000797065002D16F114000008FF7365742E3D
:102C8000726174653316F11402000AFF7365742EC5
:102C90006E756D6265723D16F11404000DFF73656B
:102CA000742E696E74656E73697479004516F1143B
:102CB000060004FF756E69744E164238B10104FFB8
:102CC000757365725916071508000CFF75736572E8
:102CD0002E637565747970655F16F114000009FF45
:102CE000757365722E72617465006516F1140200C9
:102CF0000BFF757365722E6E756D626572006F16CF
:102D0000F11404000EFF757365722E696E74656EA2
:102D1000736974797816F114060006FF637573748D
:102D20006F6D82164238B90106FF7249526C6564B4
:102D30008D1665130100250007FF6C7265646C65D4
:102D40006400941665130200250007FF6C67726E1D
:102D50006C6564009C1665130400250007FF6C6217
:102D60006C756C656400A51665130800250006FFE8
:102D70006C49526C6564AE1665131000250004FFA3
:102D80004C656430B71665132000250006FF726C91
:102D900069676874BF1665130100280006FF6C6C34
:102DA00069676874C61665130200280002FF627A1C
:102DB000CE16651304002B0007FF72626C756C65FC
:102DC0006400D616651308002B0003FF73773200EA
:102DD000DC16651310002B0007FF7267726E6C65BE
:102DE0006400E516651320002B0007FF727265640E
:102DF0006C656400EC16651340002B0003FF7377CD
:102E00003100F516651380002B0004FF696E6974AC
:102E1000FE160038E71001167B38991686139916AE
:102E2000FC13A2168613A216FC13AB168613AB1660
:102E3000FC13B4168613B416FC13BC168613BC160A
:102E4000FC13C3169213C316FC138915CB169B15DE
:102E5000D3169B15D9169213D916FC13E2168613B6
:102E6000E216FC13E9168613E9160714F216861308
:102E7000F216FC13FB168613FB16FC1302178613BF
:102E8000021707141A3808FF6D73675F717569744C
:102E900005170038C7031B007072657373207377C2
:102EA000697463682031202844372920746F2071A9
:102EB00075697400FA03893F1A380AFF756E6974E0
:102EC0002E64656C6179431700385D1643167338BC
:102ED000373805000402023B1A381A3804FF7377AA
:102EE000313F5D17003802171E1430388417373809
:102EF0001400431302171E1430388117D83F2938A5
:102F000082174E39293885174E391A3804FF7377DE
:102F1000323F6E170038E9161E1430389C173738C8
:102F200014004313E9161E1430389917D83F293876
:102F30009A174E3929389D174E391A3804FF627591
:102F40007A7A861700384E3909083038B017893A2E
:102F5000D9169213023BD9168613023BB73AA8172B
:102F60001A3806FF62757A7A65729E17003837380C
:102F700064000402AB38AB38A217BA10163E4313F4
:102F8000A2171A3807FF2E726C6967687400B117B0
:102F90000038CB166214F5157C03893F1A3807FFF9
:102FA0002E6C6C6967687400C2170038D3166214FF
:102FB000F5157C03893F1A3808FF546573742E4C4D
:102FC0004544CF1700384E3909083038F617893A8A
:102FD000AB169213F216921332114313AB168613EB
:102FE000F216861332114313B73AE8171A3808FF5E
:102FF0007377323F6D6F6465DC17003819167B38C4
:103000000F167B388A17303816180F167338293A7E
:10301000AB3819167338723930381018D3384E3926
:10302000D338AB380F167B387C03893F01167338D1
:103030003738050004024313F33E30380218EB3EE4
:10304000D3380F1673381A3808FF546573744375F4
:103050006573F71700385D164C1673385D163B160E
:1030600073384E39C938C73F30383A18D3388A01D7
:1030700029381C19CE3FC938C73F30384F18D338CC
:103080004E39090830384D18893AD9169213641709
:10309000D91686136417B73A451829381C19BA107F
:1030A000C938C73F30386418D3384E39090830382A
:1030B0006218893AF21692136417F216861364178F
:1030C000B73A5A1829381C1937380300C938C73F8E
:1030D00030387E18D3384E39090830387C18893A90
:1030E000F2169213D91692136417F2168613D91694
:1030F00086136417B73A701829381C19BF10C938DD
:10310000C73F30389318D3384E39090830389118F2
:10311000893AAB1692136417AB1686136417B73A45
:10312000891829381C1937380500C938C73F303885
:10313000AD18D3384E3909083038AB18893AAB1678
:103140009213D91692136417AB168613D9168613E9
:103150006417B73A9F1829381C19C410C938C73FDB
:103160003038C618D3384E3909083038C418893A6F
:10317000AB169213F21692136417AB168613F2165F
:1031800086136417B73AB81829381C19373807005E
:10319000C938C73F3038E418D3384E3909083038B9
:1031A000E218893AAB169213F2169213D9169213BB
:1031B0006417AB168613F2168613D9168613641796
:1031C000B73AD21829381C19C910C938C73F303846
:1031D000FD18D3384E3909083038FB18893AAB1638
:1031E0008613F21692136417AB169213F216861317
:1031F0006417B73AEF1829381C1937380900C9384D
:10320000C73F30381B19D3384E39090830381919DF
:10321000893AAB168613F2169213D91692136417D5
:10322000AB169213F2168613D91686136417B73AA3
:10323000091929381C19D3381A3807FF44726561F7
:103240006D657200241800381A3805FF53746172D6
:1032500074001D1900382A1823191A3805FF4D6FFC
:1032600064653000251900381A3805FF4D6F646514
:1032700031002E19003892166D1673385D163B1604
:103280007B389216761673385D1643167B38921685
:10329000801673385D164C167B3892168B16733871
:1032A0005D1657167B382A191A3805FF4D6F64656D
:1032B000320035190038C4105D163B167B38BA1041
:1032C0005D1643167B38BA105D164C167B38BA1063
:1032D0005D1657167B382A191A3805FF4D6F64653D
:1032E000330055190038C4105D163B167B38BA10F0
:1032F0005D1643167B38C4105D164C167B38BF1024
:103300005D1657167B382A191A3805FF4D6F64650C
:1033100034006D190038373807005D163B167B38CE
:10332000BA105D1643167B38CE105D164C167B38EE
:10333000373805005D1657167B382A191A3805FFED
:103340004D6F646535008519003892168016733804
:103350003738FF00FD17921680167B382A181A3866
:1033600005FF4D6F646536009F19003892168B1665
:10337000733837380B00FD1792168B167B382A18D6
:103380001A3805FF4D6F64653700B0190038921682
:103390007616733837380B00FD17921676167B3881
:1033A0002A181A3805FF4D6F64653800C1190038B6
:1033B00092166D16733837380B00FD1792166D167E
:1033C0007B382A181A3805FF4D6F64653900D21909
:1033D00000382316733837380B00FD1723167B3857
:1033E0001A3807FF4E6F766152454D00E3190038D9
:1033F0002A194E3907167B38E71001167B38373803
:103400006400E21772173038141A07167338293A15
:10341000AB382B16723930380F1AD3384E39AB38D7
:1034200007167B387C03893F4E39C938C73F30388F
:10343000271AD338C7030E004D6F64652030202D46
:1034400020536C656570FA0333192938F21ACE3FA0
:10345000C938C73F3038411AD338C7031B004D6FF6
:1034600064652031202D2041646A75737461626C3B
:10347000652053657474696E6700FA033A19293838
:10348000F21ABA10C938C73F3038571AD338C703B1
:1034900014004D6F64652032202D204C69676874DC
:1034A00020536C656570FA035A192938F21A3738B7
:1034B0000300C938C73F30386F1AD338C703150027
:1034C0004D6F64652033202D204D656469756D2036
:1034D000536C65657000FA0372192938F21ABF102F
:1034E000C938C73F3038851AD338C70313004D6F2A
:1034F00064652034202D204465657020536C65651B
:103500007000FA038A192938F21A37380500C938C9
:10351000C73F30389C1AD338C70314004D6F646519
:103520002035202D2043756520466C6173686573D6
:10353000FA03A4192938F21AC410C938C73F303821
:10354000B11AD338C70312004D6F64652036202DA1
:1035500020496E74656E73697479FA03B519293858
:10356000F21A37380700C938C73F3038C51AD33880
:10357000C7030D004D6F64652037202D2052617404
:103580006500FA03C6192938F21AC910C938C73FAD
:103590003038D81AD338C7030D004D6F6465203812
:1035A000202D205479706500FA03D7192938F21AB2
:1035B00037380900C938C73F3038F11AD338C70344
:1035C00018004D6F64652039202D2041646A7573A1
:1035D0007461626C65204D6F6465FA03E8192938DF
:1035E000F21AD33801167338373805000402431332
:1035F000F33E3038021AEB3ED3381A380BFF5475BD
:10360000726E6B65792D61707000F11900384E395A
:10361000F7193738E80343133038081B1A38FFFF0F
:10362000FFFFFFFFFFFFFFFFFFFFFFFFFFFFFFFFAA
:10363000FFFFFFFFFFFFFFFFFFFFFFFFFFFFFFFF9A
:10364000FFFFFFFFFFFFFFFFFFFFFFFFFFFFFFFF8A
:10365000FFFFFFFFFFFFFFFFFFFFFFFFFFFFFFFF7A
:10700000BF93AF93DB0111966EF0FD01EE0FFF1FF2
:10701000659175911196FB01EE0FFF1F059115917A
:10702000F8010994E89464EB7CE3F5CF04FF6578FC
:107030006974B90A1B38AF91BF91E6CF07FF657835
:1070400065637574650016382538BC01899199917E
:10705000E2CF2A38FD01EE0FFF1FA591B591D4CFE5
:107060003138982B89919991A9F31196CDCF383861
:107070009A938A93FD01EE0FFF1F859195911196CA
:10708000C3CF42389A938A93FB013196EE0FFF1FCC
:1070900085919591B9CF4C389A938A93CB010196FB
:1070A000B3CF52389A938A93FB013196EE0FFF1FAC
:1070B00085919591840D951DA7CF07FF2876616C6A
:1070C000756529001E3800381C077C083F076938A1
:1070D0001A380E949508AB38B601BA3B24381A38E2
:1070E00001FF40005D387438FC01819191918CCF93
:1070F00001FF210070387C38FC01899199919183BE
:1071000080838991999180CF02FF632178388838F4
:10711000FC018991999180838991999175CF02FFA2
:10712000634084389338FC01992780816DCF02FF3A
:1071300040758F380038F03A973973381A3802FFA3
:10714000217597380038F03A97397B381A3803FFA1
:10715000647570009F38AC389A938A9355CF04FFBA
:107160003F647570A738B438082F092B11F09A9333
:107170008A934ACF04FF73776170AF38BF388C01B0
:10718000899199911A930A933FCF04FF6F766572A4
:10719000BA38CA389A938A938A819B8135CF04FF83
:1071A00064726F70C538D438899199912DCF03FFDF
:1071B000726F7400CF38DC388C0129913991899134
:1071C00099913A932A931A930A931ECF03FF6E69FB
:1071D0007000D738EB38229617CF02FF723EE638A0
:1071E000F1389A938A938F919F910ECF02FF3E724E
:1071F000ED38FA389F938F938991999105CF02FFCB
:107200007240F63803399A938A938F919F919F9396
:107210008F93FACE02FF3C3EFF380038C73F143947
:107220001A3802FF303D0A391539982BD1F530C094
:1072300002FF303C11391C3997FD2AC032C002FFD1
:10724000303E18392339821593055CF151F120C085
:1072500003FF64303E001F392D3982159305899153
:10726000999182059305ECF0E1F012C003FF6430C0
:107270003C0028393B39229697FD0C9448390C94F0
:10728000513904FF74727565363946399A938A9379
:107290008FEF9FEFB9CE01FF300041394F399A93FC
:1072A0008A93C101B1CE02FF753C4B395739299100
:1072B000399182179307A8F3A1F3EACF02FF753E35
:1072C00053390038BE3856391A3801FF3C005E3950
:1072D000693929913991281739071CF7D9CF01FF4E
:1072E0003E00653973392991399128173907CCF255
:1072F000C1F2CECF04FF6C6F67326F397F39FC016A
:10730000992780E18A9522F0EE0FFF1FD8F77CCEF7
:107310009A957ACE01FF2D007A398E39099119910B
:10732000081B190BC80170CE01FF2B008A39983950
:1073300009911991800F911F67CE02FF6D2A943930
:10734000A1398C01899199919C0131027001209F92
:10735000C0013003F308900DE11CF31C1203F30885
:10736000900DE11CF31C9A938A93C7014DCE06FF42
:10737000756D2F6D6F649D39BD397C0129913991EF
:107380000991199140E15527000F111F221F331F4A
:10739000551F2E153F05520518F003952E193F096C
:1073A0004A9589F73A932A93C8012ECE03FF756D4B
:1073B0002A00B739DB398C0189919991809FF001BE
:1073C00022273327909FF00D211D331D819FF00D43
:1073D000211D331D919F200D311DCF019A938A935A
:1073E000C90112CE06FF696E76657274D639F83916
:1073F0008095909509CE02FF322FF239FF3995958D
:10740000879502CE02FF322AFB39063A880F991F70
:10741000FBCD03FF616E6400023A0E3A09911991A7
:1074200080239123F1CD02FF6F72093A173A099137
:107430001991802B912BE8CD03FF786F7200133ADE
:10744000213A0991199180279127DECD02FF312B36
:107450001C3A2A3A0196D8CD02FF312D263A303A0D
:107460000197D2CD06FF6C73686966742C3A383A7E
:10747000FC018991999131971AF0880F991FFBCFE0
:10748000C3CD06FF727368696674323A473AFC01ED
:107490008991999131971AF096958795FBCFB4CD44
:1074A00002FF2B21413A543AFC01899199912081A4
:1074B0003181820F931F8083918389919991A4CD0B
:1074C00003FF72704000503A653A9A938A938DB7E1
:1074D0009EB79ACD03FF72702100603A6F3A2FB7C2
:1074E000F8948DBF9EBF2FBF899199918DCD03FFD9
:1074F000737040006A3A7C3A9A938A93CE0184CDA5
:1075000003FF73702100773A853AEC0189919991D4
:107510007BCD8A3A29913991E0E83E0F821B930B8B
:107520003F932F939F938F93899199916DCD01FFF5
:107530006900803A9B3A9A938A938F919F91EF9139
:10754000FF91FF93EF939F938F938E0F9F1F5CCDBF
:10755000A93AEF91FF91E80FF91F899199911BF0DA
:10756000FF93EF9377CD0F911F9111964DCDB83AC0
:10757000EF91FF913196BBF3F3CF06FF756E6C6F01
:107580006F70973AC33A1F910F911F910F913CCDA5
:1075900006FF636D6F76653EBD3ACE3ABF93AF93FB
:1075A000E991F991A991B991092F082B41F0E80FC0
:1075B000F91FA80FB91F1E9112930197E1F7AF9120
:1075C000BF918991999120CD02FF3E3CC83AE83A9B
:1075D000092F982F802F18CD03FF75704000E43AD3
:1075E000F13A9A938A93C2010FCD03FF757021007F
:1075F000EC3AFA3A2C018991999106CD03FF316D4D
:107600007300F53A033BE0EDF7E03197F1F7FCCC7E
:1076100003FF323E7200FE3A0D3BFC0189919991C5
:107620009F938F93FF93EF9389919991EDCC03FFF3
:1076300032723E00083B1C3B9A938A93EF91FF9174
:107640008F919F919A938A93CF01DECC02FF21659F
:10765000173B2A3BFC01899199912FB7F89428D0C8
:1076600000B5081709F00BD0319622D000B50917E4
:1076700011F0892F04D02FBF89919991C5CCF99928
:10768000FECF07B700FDFDCFF2BDE1BD80BDFA9A88
:10769000F99A089502FF4065263B4E3B2FB7F894B8
:1076A000FC0106D080B5319603D090B52FBFACCC8D
:1076B000F999FECFF2BDE1BDF89A089502FF216964
:1076C0004A3BDF3D6400803D8A3D09FF2821692D4A
:1076D0006E72777729005E3B6D3B1FB71F93F8945E
:1076E0009C0189919991AF93BF93CF93DF9309D078
:1076F000DF91CF91BF91AF91899199911F911FBF58
:1077000083CC11D0E094F0948E219F21982B21F00E
:10771000B394F90102E020D0F90104E01DD0F90191
:1077200000E11AD00895F901E07CFF7FEF01A0E4A9
:10773000B0E0FE01EE0FFF1F45915591FE01E217EB
:10774000F30711F00A0102C07A010C01002704D0EE
:107750002196119771F70895F999FECF17B710FD8B
:10776000FDCFEE0FFF1F016007BFE895089502FFF0
:107770004069653BBB3BFC01EE0FFF1F8591959176
:1077800043CC03FF6E3E7200B73BC63BFC01082FA3
:10779000899199919F938F930A95D1F7EF93FF93D6
:1077A0008991999131CC03FF6E723E00C13BD83B69
:1077B0009A938A93FF91EF910E2F8F919F919A93B5
:1077C0008A930A95D1F7CF011FCC03FF64322A00B8
:1077D000D33BEA3B09911991000F111F881F991F94
:1077E0001A930A9311CC03FF64322F00E53BF83B58
:1077F0000991199195958795179507951A930A936D
:1078000003CC02FF642BF33B053C29913991E990AD
:10781000F99049915991240F351F8E1D9F1D3A9360
:107820002A93F2CB02FF642D013C163C2991399139
:10783000E990F99049915991421B530BE80AF90AD2
:107840005A934A93C701E0CB07FF64696E7665726D
:107850007400123C2B3C09911991809590950095EC
:1078600010951A930A93D0CB04FF2F6D6F64243CBC
:10787000393C9C0109911991412F432717FF04C0FE
:10788000109500950F5F1F4F37FF04C0309520956E
:107890002F5F3F4FEE24FF1851E1001F111F5A9533
:1078A00039F447FF04C0109500950F5F1F4F0BC0C0
:1078B000EE1CFF1CE21AF30A20F4E20EF31E889479
:1078C000ECCF0894EACFFA92EA92C8019DCB03FF6D
:1078D00061627300343C6C3C99231AF48095909556
:1078E000019692CB04FF7069636B673C0038293ABC
:1078F000AC3E7B3A973973381A3805FF63656C6C78
:107900002B00723C833C02967FCB04FF2B696E7484
:107910007D3C8A3C789478CB04FF2D696E74853C5D
:10792000913CF89471CB04FF696E74218C3C003853
:10793000373800009739293B1A3804FF696E7440C4
:10794000933C00383738000097394D3B1A3808FF10
:10795000696E742D747261709D3CAE3C809316010B
:1079600089919991689450CB003837381601923834
:107970003738000097394D3B2438BF3C1A38C03C9B
:1079800001D042CB18950038C7030300206F6B006D
:10799000FA031A380038C70302003E20893FFA0371
:1079A0001A380038C7030400203F3F20FA03A53EE1
:1079B0007338F938293F7C03CA3E73387C03F038AA
:1079C000A53E7B381A3804FF71756974A73C0038EE
:1079D0003F0846087B38C505843AD2056E3AD4087C
:1079E0009F3E733814393038F63CCA3CD8043038DE
:1079F000F03C37381506503DB3383038083DAB38C9
:107A00003738FEFF68393038063DD13C2938E83C2C
:107A1000C33C2938F03C1A3805FF70617573650066
:107A2000E33CDF3D7D01943D9E3D04FF636F6C644C
:107A30000C3D1A3DA4B62224332424BEE0E0F1E03C
:107A40002192E030E9F7F930D9F7EFE7F1E02F01C3
:107A50000FEF0DBF048318E01EBF1583CFEAC68366
:107A6000D8E0D783AAE3BDE3CFCA04FF7761726D84
:107A7000153D0038990237388A013738113DBF3D2E
:107A8000D408443FE73C07FF68616E646C65720090
:107A9000353D52380A0005FF636174636800433D59
:107AA00000387B3AF938493D7338F938643A493D32
:107AB0007B382438F038493D7B38F038D3384E399C
:107AC0001A3805FF7468726F77004B3D0038AB3889
:107AD000143930386D3DD3381A38493D73386E3A11
:107AE000F038493D7B38F038BE38F938843AD3381D
:107AF000F0381A3807FF4564656665724000613DDD
:107B00000038BA3B4D3B1A3807FF4564656665721D
:107B100021007A3D0038BA3B293B1A3807FF5264EE
:107B2000656665724000843D0038BA3B73381A3888
:107B300007FF52646566657221008E3D0038BA3BCE
:107B40007B381A3807FF5564656665724000983DBA
:107B50000038BA3BF03A973973381A3807FF556442
:107B6000656665722100A23D0038BA3BF03A97394C
:107B70007B381A3806FF646566657221AE3D0038B1
:107B8000B83FAB38B601B601BA3B24381A3806FF05
:107B9000646566657240BA3D0038B83FAB38B601DF
:107BA000BA3B24381A3807FF2864656665722900D5
:107BB000C73D00381C077C083F07DF3D1A380E948C
:107BC0009508AB38B601BA3B243824381A3802FF7E
:107BD000643DD33D0038153C163A14391A3802FF7B
:107BE000752EE73D00384E3984031A3803FF752E91
:107BF0007200EF3D00384E39BE388D031A3805FF4C
:107C0000752F6D6F6400F63D0038F9384E39F03845
:107C1000BC391A3806FF6E6567617465FF3D003830
:107C2000F739293A1A3801FF2F000A3E0038383C4C
:107C3000EA381A3803FF6D6F6400133E0038383C91
:107C4000D3381A3803FF6D696E001A3E0038B13E12
:107C5000723930382C3EBE38D3381A3803FF6D6184
:107C60007800223E0038B13E68393038383EBE38A0
:107C7000D3381A3806FF77697468696E2E3E00386B
:107C8000C9388D39F9388D39F03856391A380DFF21
:107C900073686F772D776F72646C697374003A3E06
:107CA00000383738563EBE38BC061A380038D7067A
:107CB000FA03963F45391A3805FF776F72647300EF
:107CC000473E003837384A004D3B503E1A380200D4
:107CD0002E225C3E0038723E3F07FA031A3802003B
:107CE0007322673E0038373822007E059F3E733886
:107CF00030387B3E6B071A3804FF66696C6C6F3E48
:107D00000038DB38DB38B33830388D3E813F893A74
:107D1000AB389A3A8738B73A883ED3381A3805FFD5
:107D2000665F637075007C3E003837380012373864
:107D30007A001A3805FF7374617465008F3E42380B
:107D4000A50104FF626173659A3E52380C0005FF7D
:107D500063656C6C7300A13E063A04FF3264757073
:107D6000A73E0038C938C9381A3805FF3264726F27
:107D70007000AD3E0038D338D3381A3804FF74751C
:107D8000636BB53E0038BE38C9381A3803FF3E6908
:107D90006E00BE3E5238180003FF70616400C63E9C
:107DA00000380B3F3738280097391A3804FF656DC3
:107DB0006974CC3EDF3D0E00A83DB43D05FF656D06
:107DC00069743F00D63EDF3D1000A83DB43D03FF7F
:107DD0006B657900DE3EDF3D1200A83DB43D04FF37
:107DE0006B65793FE73EDF3D1400A83DB43D02FFDF
:107DF0006470EF3E69383600803D8A3D05FF656856
:107E000065726500F73E69383A00803D8A3D04FF9F
:107E100068657265FE3E69383800803D8A3D05FF21
:107E2000616C6C6F7400073F00380B3F9739A401F9
:107E30000C3F1A3803FF62696E000F3F0038D33FD2
:107E4000A53E7B381A3807FF646563696D616C0075
:107E50001A3F003837380A00A53E7B381A3803FF2E
:107E600068657800233F003837381000A53E7B381E
:107E70001A3802FF626C2F3F4238200007FF7475EA
:107E8000726E6B657900393FDF3D4000803D8A3D71
:107E900007FF746F7570706572003E3F0038AB3835
:107EA0003738610037387B003F3E30385A3F37382B
:107EB000DF000D3A1A3807FF746F6C6F7765720038
:107EC000483F0038AB383738410037385B003F3E19
:107ED00030386D3F37382000163A1A3806FF3F73A6
:107EE0007461636B5B3F0038DD051B3930387B3FC5
:107EF0003738FCFF663D1A3806FF626F756E647393
:107F00006E3F0038C9389739BE381A3802FF63729D
:107F10007C3F003837380D00DA3E37380A00DA3E49
:107F20001A3805FF737061636500863F00383C3F77
:107F3000DA3E1A3806FF737061636573913F00384B
:107F40004E39323EAB383038A93F963F2F3A293868
:107F5000A23FD3381A3803FF733E64009A3F0038BB
:107F6000AB381B391A3805FF3E626F647900AB3FAE
:107F70002A3A0800326C69746572616CB33F00384C
:107F8000BE38600760071A3801FF3D00B93F00386E
:107F90008D3914391A3801FF3100C43F42380100CD
:107FA00001FF3200CB3F4238020002FF2D31D03FAB
:107FB0004238FFFFFFFFFFFFFFFFFFFFFFFFFFFF55
:107FC000FFFFFFFFFFFFFFFFFFFFFFFFFFFFFFFFC1
:107FD000FFFFFFFFFFFFFFFFFFFFFFFFFFFFFFFFB1
:107FE000FFFFFFFFFFFFFFFFFFFFFFFFFFFFFFFFA1
:107FF000FFFFFFFFFFFFFFFFFFFFFFFFFFFFFFFF91
:00000001FF
