:100000000C941A3D14D1FFFF12D1FFFF10D1FFFF56
:100010000ED1FFFF0CD1FFFF0AD1FFFF08D1FFFF78
:1000200006D1FFFF04D1FFFF02D1FFFF00D1FFFF88
:10003000FED0FFFFFCD0FFFFFAD0FFFFF8D0FFFF9C
:10004000F6D0FFFFF4D0FFFF18C0FFFFF0D0FFFF96
:10005000EED0FFFFECD0FFFFEAD0FFFFE8D0FFFFBC
:10006000E6D0FFFFE4D00008000400701A000A0088
:1000700041546D65676133323850AF93AFB7AF937A
:10008000BF93EF93FF93B091C600A0911201E0E0FF
:10009000F1E0EA0FF31DB083A395AF70A0931201B6
:1000A000FF91EF91BF91AF91AFBFAF91189500381D
:1000B0004E393738120187384E39373814018738AE
:1000C0001A3806FF72782D697372000000388000BC
:1000D00030386700373814019238AB38293A37384E
:1000E0000F000D3A37381401873837380001973937
:1000F00092381A3807FF72783F2D697372006100D9
:100100000038113D373814019238373812019238CF
:100110000D391A3807FF74782D706F6C6C007A00F7
:1001200000389E00303891003738C60087381A38BA
:1001300008FF74783F2D706F6C6C8A000038113D99
:100140003738C0009238373820000D3A1A3804FF8B
:1001500075627272980069388400803D8A3D06FF9E
:100160002B7573617274A7000038373898003738E0
:10017000C1008738373806003738C2008738AB00EF
:10018000AB38E73A3738C50087383738C400873886
:1001900057001A3808FF31772E7265736574AF0007
:1001A000D1009A938A939927249A2C98E0ECF3E053
:1001B0003197F1F71FB7F8942C9A2498E0E8F0E013
:1001C0003197F1F783B184FF9FEF1FBF24982C98DC
:1001D000E0E4F3E03197F1F7892F0C94043807FF3E
:1001E00031772E736C6F7400CA00F600249A2C9835
:1001F0001FB7F894ECE0F0E03197F1F78894879519
:1002000010F424982C9AE2E1F0E03197F1F703B171
:1002100004FD8068E6E6F0E03197F1F724982C9A27
:10022000E4E0F0E03197F1F71FBF0C9404380A9234
:100230000FB60A920F900F900A940092160109903F
:100240000FBE09906894089502FF6D2BEF000038EF
:10025000AF3F043C1A3803FF75642A0024010038BC
:10026000AB38F938DA39D338BE38F038DA39DB3818
:1002700097391A3804FF756D61782B010038B13E4B
:10028000563930384401BE38D3381A3804FF756DFA
:10029000696E3A010038B13E613930385001BE38DC
:1002A000D3381A380038373800800D3A14393038CE
:1002B0005C01373801001A3845391A380AFF6E6177
:1002C0006D653E666C61677346010038BA3B37382E
:1002D00000FF0D3A1A3803FF766572005E010038A0
:1002E000D102FA03963FA53E7338DF02293FAF3FA4
:1002F0001803200337382E00090336034103300466
:10030000A53E7B38963FE702FA031A3804FF6E6F6A
:100310006F706B0100381A3806FF756E757365646F
:10032000860100387B3A0B3F8D391A380200746F12
:100330008C0100383F04B83F9F3E73383038AA0123
:100340003F07A4014A071A380038F038AB38B60125
:10035000F938BA3BAB38B601B601BA3B24381A3883
:1003600007FF692D63656C6C2B0096010038293AF4
:100370001A3808FF69636F6D70617265B0010038EB
:10038000F938C938F0380D393038CA01BA3ED33897
:1003900045391A38BE384E3909083038EF01893AE4
:1003A000C9387338F201C938BA3BF201AB38373873
:1003B000000156393038E001BE383738FF000D3AB9
:1003C0000D393038E701BA3E4539C23A1A38293A70
:1003D000BE38823CBE3837380200A83AD001BA3E57
:1003E0004E391A380038AB383738FF000D3A613FC4
:1003F000BE38E73A3738FF000D3A613FE73A163A20
:100400001A3801FF2A00B9010038A039D3381A3848
:1004100001FF6A0001020038643A37380700973953
:100420007338643A373809009739733897391A386E
:1004300004FF6461627308020038AB381B3930383E
:10044000220229021A3807FF646E6567617465002D
:10045000180200382A3C373801004E39043C1A385B
:1004600005FF636D6F76650023023602BF93AF937D
:10047000E991F991A991B991092F082B21F01D91CA
:1004800011930197E1F7AF91BF91899199910C94E4
:10049000043805FF32737761700030020038DB38B2
:1004A000F938DB38F0381A380AFF726566696C6C07
:1004B0002D74696249020038770237385A00870480
:1004C0007D027B384E39CA3E7B3845391A380AFFDF
:1004D000736F757263652D74696254020038770218
:1004E0007D0273381A3803FF74696200670242386C
:1004F000170104FF2374696273024238710106FF19
:1005000065653E72616D790200384E39893AC938A5
:100510004D3BC9387B38823CBE38823CBE38B73A46
:100520008702BA3E1A3808FF696E69742D72616DD0
:100530007F02003837386800F03A37381C00FE393F
:1005400084021A380BFF656E7669726F6E6D656E88
:10055000740093024238420009FF776F72646C693D
:100560007374730000000038373808001A3804FF2D
:100570002F706164AC0200387B3AD03E8D391A3856
:1005800005FF2F686F6C6400B7020038D03E0B3F48
:100590008D391A380AFF666F7274682D6E616D6549
:1005A000C0020038C7030700616D666F727468008F
:1005B0001A3807FF76657273696F6E00CA020038D9
:1005C00037383D001A3803FF63707500D9020038D0
:1005D0003738370026041A3808FF6D63752D696EA9
:1005E000666FE3020038373833001A3805FF2F757D
:1005F00073657200EC020038373826001A3803FFA2
:10060000686C6400A2024238730104FF686F6C6476
:10061000FF0200380303AB3873382F3AAB38F93890
:10062000BE387B38F03887381A3802FF3C23050380
:100630000038D03E03037B381A3801FF230015032E
:100640000038A53E73389D03DB3837380900C938B8
:10065000683930382E03373807009739373830007B
:10066000973909031A3802FF23731D03003820034A
:10067000B13E163A1439303837031A3802FF233E98
:1006800033030038BA3E03037338D03EC9388D397E
:100690001A3804FF7369676E3E0300381B3930381F
:1006A000540337382D0009031A3803FF642E7200F3
:1006B00049030038F938C23E1C0218033603DB3800
:1006C0004D034103F038C9388D399F3F30041A3843
:1006D00002FF2E7255030038F938AF3FF038590346
:1006E0001A3802FF642E680300384E395903963FCA
:1006F0001A3801FF2E0071030038AF3F74031A3817
:1007000003FF75642E00790300384E398D03963F40
:100710001A3804FF75642E7280030038F938180304
:1007200036034103F038C9388D399F3F30041A38F9
:1007300006FF75642F6D6F6489030038F9384E39F0
:100740000239BC39F038BE38F938BC39F0381A38BB
:1007500006FF64696769743F980300384E3FAB3801
:10076000373839007239373800010D3A9739AB38CC
:10077000373840017239373807010D3A8D3937382B
:1007800030008D39AB38A53E733856391A380038E9
:1007900002392604F038C938293AFE399739293AFE
:1007A000F9381A3802FF732CA8030038AB38D90384
:1007B0001A3800384A07AB38FE39C23E053A8D393F
:1007C000F9384E3909083038EC03893AAB387338B8
:1007D0004A07823CB73AE603F03822393038F3034F
:1007E000AB3892384A07D3381A3805FF69747970E4
:1007F0006500D2030038AB38FE39C23E053A8D3968
:10080000F9384E39090830380E04893AAB38BA3B0A
:10081000AB381B041704293AB73A0604F0382239DA
:1008200030381504AB38BA3B1B04D3381A380038BB
:10083000E73A1B041A3800383738FF000D3ADA3E21
:100840001A3806FF69636F756E74F5030038AB38AC
:10085000293ABE38BA3B1A3804FF7479706521040E
:100860000038813F090830383B04893A9A3A923877
:10087000DA3EB73A36041A3801FF27002C04003854
:10088000AB05ED056306C73F30384804D3381A3846
:100890003738F3FF663D05FF63736B6970003C04F6
:1008A0000038F938AB3830385F04C938923802392B
:1008B000C73F30385F04CE3F9C0529385204F038DA
:1008C000D3381A3805FF637363616E004B04003838
:1008D000F938C938AB3892380239C73F1439303843
:1008E0007C04BE382F3ABE38C9381B391439303829
:1008F0007C04293A29386A04EA38C9388D39F03835
:10090000D3381A3806FF6163636570746204003877
:10091000C93897392F3AC938EB3EAB38C804143977
:100920003038BA04AB3837380800C73F3038AA042B
:10093000D338DB38B13E7239F938DB38DB38F03880
:100940003038A804C0042F3AF938C938F0383E01CD
:100950002938B804AB383C3F68393038B104D33853
:100960003C3FAB38DA3EC9388738293AC9384A01A2
:1009700029388C04D338EA38BE388D39893F1A3883
:10098000003837380800AB38DA3E963FDA3E1A387E
:100990000038AB3837380D00C73FBE3837380A004B
:1009A000C73F163A1A3806FF726566696C6C820496
:1009B000DF3D1A00A83DB43D04FF63686172D304B3
:1009C0000038AB05D33892381A3806FF6E756D6261
:1009D0006572DC040038A53E7338F9382E05F93805
:1009E00041052E05F038163AF938AB38143930384D
:1009F0000105BA3EF038D338F038A53E7B384E3981
:100A00001A380C3B4E394E391B3B5F05B338303832
:100A10002305CE3FC73F30381A05923837382E00AD
:100A2000C73F30381B05F038303817052902D33F4F
:100A300029382905D338BA3EF038D338F038A53EE6
:100A40007B384E391A38BA3EF038303828050F3E18
:100A5000CE3FF038A53E7B3845391A380038C938C2
:100A6000923837382D00C73FAB38F93830383A055F
:100A7000CE3F9C05F0381A384C380A0010000200AE
:100A80000A000038C9389238373823008D39AB381E
:100A90004E39373804003F3E303857053C0597390A
:100AA000BA3BA53E7B38CE3F9C0529385805D33844
:100AB0001A3807FF3E6E756D62657200E5040038F6
:100AC000AB3830387805C9389238AD03143930382E
:100AD0006B05D3381A38F9384E02A53E73382F010A
:100AE000F03827014E02373801009C05293860058F
:100AF0001A3805FF70617273650059050038F938BE
:100B00009205CA3E73389C05F0386704AB38293A21
:100B1000CA3E533ACE3F9C051A3806FF736F757272
:100B200063657905DF3D1600A83DB43D07FF2F73CF
:100B30007472696E67008D050038DB38C9389739E3
:100B4000DB38DB388D391A380AFF70617273652D16
:100B50006E616D65960500383C3FAF051A38003868
:100B6000F9389205CA3E73389C0502395004F038B2
:100B70006704B13E97399205D3388D39CA3E7B3828
:100B80001A3803FF73703000A40569380600A83DC9
:100B9000B43D02FF7370C1055238080003FF727044
:100BA0003000C9050038D60573381A3852380400A9
:100BB00005FF646570746800CE050038C5057B3A92
:100BC0008D39FE392F3A1A380DFF646F2D72656327
:100BD0006F676E697A657200D80500383738F90595
:100BE00037385A00830914393038F805BA3E780688
:100BF0001A380038DB38DB38B13E0C3BDB382438A0
:100C00001B3BDB38AB387806C73F30380A06D33891
:100C10004E391A38EA38EA3845391A3809FF696E08
:100C20007465727072657400E4050038AB05AB380A
:100C300030382506ED059F3E733830382006B60162
:100C4000BA3B2438733F29381606BA3E1A3805FFD6
:100C5000723A6E756D000E064C388A0160076007A7
:100C600006FF723A646E756D27064C388A01BF3FE5
:100C7000BF3F07FF7265633A6E756D00300600383E
:100C8000EA0430384B06CE3FC73F303849062C06C1
:100C90001A3835061A3878061A3808FF7265633A2A
:100CA000776F726439060038EE06AB381439303885
:100CB0005C06D33878061A3863061A3806FF723A8B
:100CC000776F72644D064C3867066B06BF3F00387D
:100CD000D33824381A3800381B39303871064A079F
:100CE0001A3824381A3806FF723A6661696C5E0653
:100CF0004C387C067C067C0600383738F3FF663DAE
:100D00000FFF7365617263682D776F72646C69732E
:100D1000740073060038F9384E3937389F06F038BA
:100D2000BC06AB38143930389906BA3ED3384E3940
:100D30001A38AB38E306BE38650152011A3800385C
:100D4000F938D338B13E0239D706BF013038AD0685
:100D5000F038D3384E3945391A38BA3EF0384E3962
:100D60001A3811FF74726176657273652D776F7230
:100D7000646C69737400800600384D3BAB383038C2
:100D8000CD06B13E0C3BBE3824381B3BDB38303837
:100D9000CD06E909BA3B2938BE06BA3E1A380BFF20
:100DA0006E616D653E737472696E6700B1060038DE
:100DB00026043738FF000D3A1A3807FF6E66613E89
:100DC00063666100CF060038E909293A1A3809FF3D
:100DD00066696E642D6E616D6500DD06003837381A
:100DE000FA0637384800830914393038F906BA3E14
:100DF0004E391A380038F938B13EF0388A06AB3827
:100E000030380707F938EA38EA38F03845391A38FF
:100E100006FF6E6577657374E7064238750106FF55
:100E20006C617465737408074238790108FF2863A0
:100E30007265617465290F070038AB057308AB381C
:100E40000D07823C7B3858080D077B381A380100A3
:100E50005C00160700389205EA38CA3E7B381A381B
:100E60000100280027070038373829007E05BA3EE0
:100E70001A3807FF636F6D70696C650030070038C2
:100E8000F038AB38B601F938BA3B4A071A3801FFD7
:100E90002C0039070038FA3E613BFA3E293AA4019A
:100EA000FB3E1A3803005B275D00470700383F040C
:100EB00060071A3807006C69746572616C0052072C
:100EC00000383F0737384A071A380800736C6974CE
:100ED0006572616C5A0700383F07C703D5031A389B
:100EE0000038FA3E3F07FFFF1A380038733FFA3EDA
:100EF000BE38613B1A380038FA3E1A380038733F62
:100F00004A071A38050061686561640065070038A2
:100F10003F07293870071A380200696682070038CF
:100F20003F07303870071A380400656C73658C070A
:100F300000383F0729387007BE3875071A38040093
:100F40007468656E9407003875071A380500626585
:100F500067696E009F0700387B071A3805007768BD
:100F6000696C6500A60700388F07BE381A3806007E
:100F7000726570656174AE070038D007A3071A3830
:100F80000500756E74696C00B70700383738303863
:100F90004A077E071A380500616761696E00C0075D
:100FA00000383F0729387E071A380200646FCB07E4
:100FB00000383F07893A7B074E3933081A38040056
:100FC0006C6F6F70D50700383F07B73A1A081A38A8
:100FD00005002B6C6F6F7000DF0700383F07A83AE1
:100FE0001A081A3805006C6561766500E807003854
:100FF0003F07C23A870733081A3803003F646F007F
:10100000F20700383F0709088F07D807BE383308B2
:101010001A380038B13EC73FAB38F93830381108BC
:10102000BA3EF038F7391A3807FF656E646C6F6F97
:101030007000FD0700387E072708B33830382308D2
:10104000A30729381C081A3802FF6C3E1408003820
:101050004608733873383738FEFF4608533A1A3853
:1010600002FF3E6C24080038D33F4608533A460836
:1010700073387B381A3803FF6C70300030086938D9
:101080003E00803D8A3D02FF6C703B0842387B0188
:1010900006FF637265617465430800381C077C08AD
:1010A0003F074C381A3806FF686561646572480866
:1010B0000038FA3EF938F938AB38223930386A0846
:1010C000AB38373800FF163AD903F0384D3B4A07A2
:1010D000F0381A383738F0FF663D07FF776C7363D6
:1010E0006F7065005308DF3D3C00803D8A3D06FF80
:1010F00072657665616C6D0800380D07823C733847
:10110000B338303887080D077338BE38293B1A3892
:101110000500646F65733E00770800383F07A0083C
:101120003F070E943F0795081A389A938A93CB018C
:1011300001967F916F91BF93AF93DB010C940438BC
:101140000038F0380D07823C73384D3BE306613BB5
:101150001A3801FF3A00880800381C07B708D3384E
:101160001A3807FF3A6E6F6E616D6500A908003886
:10117000FA3EAB3814077B383F070038CC081A38E2
:1011800001003B00B10800383F071A38D4087C083A
:101190001A3801FF5D00C0080038CE3F9F3E7B3803
:1011A0001A3801005B00C90800384E399F3E7B3871
:1011B0001A3808FF7661726961626C65D10800387F
:1011C0000B3FEB08D33F143F1A3808FF636F6E7371
:1011D00074616E74D90800381C077C083F074238D8
:1011E0004A071A3804FF75736572E50800381C0752
:1011F0007C083F0752384A071A3807007265637542
:1012000072736500F2080038140773384A071A38F9
:1012100009FF696D6D65646961746500FD080038DA
:10122000AA094D3BAB38BA3B3738FF7F0D3ABE3881
:10123000613B1A3806005B636861725D080900381B
:101240003F073738E0044A071A38060061626F72B8
:1012500074221A090038723E3F073C091A3805FF0C
:1012600061626F727400250900384539663D06FFDA
:101270003F61626F72742F090038DB3830384209E1
:10128000FA033409BA3E1A3809FF6765742D73747E
:1012900061636B0037090038AB38823CBE384D3B88
:1012A000AB38F9384E39BE38090830386209893A06
:1012B0009A3A2F3AAC3EC93897394D3BBE3845393A
:1012C000A83A5809BA3EF0381A3809FF7365742DE8
:1012D000737461636B0044090038B13E293BBE382A
:1012E0004E39090830387A09893A823CC23E293B96
:1012F000B73A7509D3381A3809FF6D61702D7374C8
:1013000061636B0065090038AB38823CBE384D3BE9
:10131000AC3E813F090830389F09893A9A3A4D3BE3
:10132000BE38F93802392438B33830389B09F038E0
:10133000D338C23A1A38F038D33FA83A8E09D33896
:101340004E391A380BFF6765742D63757272656EBE
:1013500074007C090038373844004D3B1A3809FFC7
:101360006765742D6F7264657200A20900383738A2
:1013700048004B091A3807FF636F6D706172650092
:10138000AF09C209BF93AF938C0189919991DC0198
:10139000899199919C0189919991FC01ED90F1902D
:1013A000EF1451F40A9519F02A95C1F701C02A9556
:1013B000022B11F4882702C08FEF00C0982FAF9145
:1013C000BF910C94043807FF6E66613E6C66610045
:1013D000BB090038D706293AFE3997391A380BFF6E
:1013E0007365742D63757272656E7400E30900385D
:1013F00037384400293B1A3808FF776F72646C69EC
:101400007374EF090038033F4E39C938293BAB38B4
:10141000823CA401043F1A380EFF666F7274682D77
:10142000776F72646C697374FC094238460009FF77
:101430007365742D6F72646572000C0A003837385A
:1014400048006C091A380FFF7365742D7265636F5D
:10145000676E697A65727300170A003837385A0068
:101460006C091A380FFF6765742D7265636F676EBC
:10147000697A65727300230A003837385A004B09BD
:101480001A3804FF636F6465320A00381C077C0851
:10149000FA3EB6014A071A3808FF656E642D636F7D
:1014A0006465410A00383F070C943F0704381A3836
:1014B00008FF286D61726B6572294C0A69386600F5
:1014C000803D8A3D0800706F7374706F6E65580AB6
:1014D0000038AB05ED05AB38F938B601B601BA3BBB
:1014E0002438F038B601BA3B4A071A380BFF61704E
:1014F000706C7475726E6B657900620A0038B400A6
:10150000893C6F011A3802FF2E73760A0038DD0518
:10151000F23D963FDD054E3909083038950A893A83
:101520009A3A763CF23DB73A900A1A380AFF627549
:10153000696C642D696E666F830A0038C7031500F5
:101540004F63742031372C20323031352031343A1A
:1015500032363A313600FA031A3805FF706C61638F
:101560006500960A0038B13E8738293ABE38350200
:101570001A3804FF776F7264AD0A0038AF050B3F6D
:10158000B20A0B3F1A3803FF32724000B90AC80A88
:101590009A938A93EF91FF918F919F919F938F934D
:1015A000FF93EF939A938A93CF010C94043805FF2D
:1015B000214073706900C30ADD0A8F93892F0E944E
:1015C000DE0C982F8F910E94DE0C0C94043808FFDB
:1015D000626D2D636C656172D70AEE0AFC01899118
:1015E00099918095008108230083899199910C94A9
:1015F000043806FF626D2D736574E70AFF0AFC016B
:10160000899199910081082B0083899199910C947B
:10161000043809FF626D2D746F67676C6500F90A05
:10162000110BFC0189919991008108270083899110
:1016300099910C94043809005B636F6D70696C6557
:101640005D00090B00383F073F073F044A071A387F
:10165000290B9A938A93FD01EE0FFF1F05911591B7
:10166000FD013196EE0FFF1F859195919A938A9314
:10167000C80112960C94043804FF23696E741B0B86
:1016800042381A000CFF6E616D653E636F6D7069C4
:101690006C653C0B0038AB38E306BE38650152017F
:1016A0003038550B37384A071A38373824381A3843
:1016B0000EFF6E616D653E696E7465727072657461
:1016C000420B0038E3061A3803FF6E6F7400580BA4
:1016D000003814391A3803FF303C3E00640B0038E0
:1016E000143914391A3805FF6E40737069006B0B9A
:1016F000790B8C0189919991FC01C8012EBC2DB503
:1017000027FFFDCF2EB521930197C1F789919991BC
:101710000C94043805FF6E2173706900730B900BF5
:101720008C0189919991FC01C80121912EBD2DB5A3
:1017300027FFFDCF2EB50197C1F7899199910C94A0
:10174000043806FF706F70636E748A0BA70BFC0180
:10175000882705D0EF2F03D099270C94043898E000
:10176000E795831D9A95E1F7089508FF3F646E653C
:1017700067617465A10B00381B393038C00B290232
:101780001A3801FF3F00B50B003873387C031A3854
:1017900007FF3F6E656761746500C10B00381B3938
:1017A0003038D30B0F3E1A3802FF6140C80BD80BFC
:1017B0009A938A93F301819191910C94043803FFD9
:1017C0006E614000D40BE40BF301E80FF91F819127
:1017D00091910C94043803FF61402B00DF0BF00B58
:1017E0009A938A93F301819191913F010C9404386B
:1017F00003FF61402D00EB0BFD0B9A938A93F301DD
:10180000929182913F010C94043802FF6121F80B00
:10181000090CF30181939193899199910C94043867
:1018200003FF6E612100050C150CF301E80FF91F91
:101830008991999181939193899199910C9404380C
:1018400003FF61212B00100C250CF3018193919370
:10185000899199913F010C94043803FF61212D0077
:10186000200C320CF30192938293899199913F015C
:101870000C94043802FF3E612D0C3E0C3C01899112
:1018800099910C94043802FF613E3A0C470C9A93EC
:101890008A93C3010C94043802FF6240430C500C3D
:1018A0009A938A93F401819191910C94043803FFE7
:1018B0006E6240004C0C5C0CF401E80FF91F819142
:1018C00091910C94043803FF62402B00570C680C74
:1018D0009A938A93F401819191914F010C94043869
:1018E00003FF62402D00630C750C9A938A93F401F8
:1018F000929182914F010C94043802FF6221700C86
:10190000810CF40181939193899199910C940438FD
:1019100003FF6E6221007D0C8D0CF401E80FF91FAE
:101920008991999181939193899199910C9404381B
:1019300003FF62212B00880C9D0CF401819391938D
:10194000899199914F010C94043803FF62212D0075
:10195000980CAA0CF40192938293899199914F016A
:101960000C94043802FF3E62A50CB60C4C01899120
:1019700099910C94043802FF623EB20CBF0C9A930A
:101980008A93C4010C94043805FF736C656570007C
:10199000BB0CCA0C8770880F816083BF889523BEFB
:1019A000899199910C94043806FF63214073706902
:1019B000C40CDA0C03D099270C9404388EBD0DB5F5
:1019C000087F0DBD0DB507FFFACF8EB5089507FF4F
:1019D00072782D706F6C6C00D40C0038FB0C3038B2
:1019E000EE0C3738C60092381A3808FF72783F2D4F
:1019F000706F6C6CE70C0038113D37388000AB38E5
:101A00003738C00092380D3AC73F1A3803FF776461
:101A10007200F50C0B0DA8950C9404380BFF74693B
:101A20006D6572302E7469636B00D53F4238A70133
:101A30000AFF74696D6572302E6973720E0D00387D
:101A4000CE3F160D533A1A380BFF74696D6572302C
:101A50002E696E697400180D0038373846008738D3
:101A60004E39160D7B3837381F0D37382000973C1C
:101A70001A380CFF74696D6572302E73746172745C
:101A8000240D00384E39160D7B38373803003738AF
:101A9000450087383738010037386E0087381A38E4
:101AA0000BFF74696D6572302E73746F7000390DA1
:101AB000003837380000373845008738373800009D
:101AC00037386E0087381A38027F6973500D003836
:101AD0009F3E73383038780D373856073738010055
:101AE0006B063738BF3D3738FFFF6B0629387A0D54
:101AF0003F04BF3D1A3806FF737461747573640D3B
:101B00005238000008FF666F6C6C6F7765727B0D52
:101B1000523802000038823C7338AB387338293AA7
:101B2000F9381A3804FF70617373820D42388A0DD8
:101B30000038F93ACC057338843A6E3A1A3804FF03
:101B400077616B65920D4238980D0EFF6D756C7460
:101B5000697461736B70617573659F0D0038643AC9
:101B60007B3ACC057B38880D7338AB387338293A0B
:101B7000F9381A3804FF73746F70A50D0038960D8C
:101B8000800D7B38113D1A380AFF7461736B2D7319
:101B90006C656570BA0D0038960DBE387B381A3802
:101BA0000AFF7461736B2D6177616B65C40D00383A
:101BB000A30DBE387B381A3805FF63656C6C2D00A9
:101BC000D00D00380F3E823C0F3E1A3808FF61638B
:101BD000746976617465DC0D0038AB3837380600FF
:101BE00097397338E10DC93837380400973973389D
:101BF000E10DF038C938293A7B38C9387B38C93803
:101C00003738080097397B38D70D1A3805FF7461CB
:101C1000736B3A00E60D00384D080B3F4A07373822
:101C200026009739143F143F0B3F4A07143F0B3FE0
:101C30004A07CE3F143FA0080E9495081A3807FFB4
:101C40007463623E74696400060E0038BA3B1A3849
:101C500007FF7463623E737030001F0E0038293A2C
:101C6000BA3B1A3807FF7463623E72703000280E68
:101C70000038D33F9739BA3B1A3808FF7463623E85
:101C800073697A65320E0038AB38250EBE38380ECF
:101C9000293ABE388D391A3809FF7461736B2D6982
:101CA0006E6974003D0E0038AB38250EC938430EFE
:101CB0004E39803EAB382E0EC938250E3738060017
:101CC00097397B38AB382E0EE10DC938250E3738E1
:101CD000080097397B38AB38380EC938250E3738AD
:101CE000040097397B3837380A00C938250E373851
:101CF0000C0097397B38250ECB0D1A3806FF736917
:101D00006E676C654C0E003837388A013738113DE4
:101D1000BF3D1A3805FF6D756C7469007E0E003882
:101D20003738AE0D3738113DBF3D1A3808FF6F6E9A
:101D30006C797461736B8A0E0038A30D800D7B384B
:101D4000F03A880D7B381A3808FF616C736F746144
:101D5000736B960E00383738113DCC3DF938830E41
:101D6000880D7338C938880D7B38BE38823C7B3883
:101D7000F0383738113DBF3D1A3805FF7461736B79
:101D80007300A40E0038800DAB38AB38F23DAB3891
:101D90007338AB38A30DC73F3038D90EC7030900DD
:101DA000202072756E6E696E6700FA03D338293889
:101DB000EF0E960DC73F3038E70EC70309002073BA
:101DC0006C656570696E6700FA032938EF0EC7030A
:101DD00009002020756E6B6E6F776E003C09893F9D
:101DE000823C7338C938C938C73F3038C50ED3383C
:101DF000D338C7030F004D756C74697461736B65DC
:101E0000722069732000FA033738113DCC3D373812
:101E10008A01C73F3038110FC70304006E6F74206A
:101E2000FA03C703070072756E6E696E6700FA03E6
:101E30001A38047F63617365BD0E00384E391A3855
:101E4000027F6F66190F0038293AF9383738C938D8
:101E50003738FFFF6B063738C73F3738FFFF6B0651
:101E600037388F07373801006B063738D3383738A3
:101E7000FFFF6B06F0381A38057F656E646F6600E9
:101E8000200F0038F93837389807373801006B06CB
:101E9000F0381A38077F656E6463617365003C0F24
:101EA00000383738D3383738FFFF6B064E3909080A
:101EB0003038620F893A3738A307373801006B068C
:101EC000B73A5B0F1A3805FF72616E6765004A0FFB
:101ED00000380C3BAB38AB381B3B3F3E1439303835
:101EE000720FF7391A3802FF6D73630F00384E39DD
:101EF00009083038800F893A113D023BB73A7C0F10
:101F00001A3807FF3C6275696C647300730F003800
:101F10001C077C08D83F4A071A3808FF6269746DAD
:101F200061736B3A810F0038870F4A074A07A00890
:101F30000E949508AB38BA3BBE38B601BA3B1A3896
:101F400008FF706F727470696E3A8D0F0038CE3F63
:101F5000C938373807000D3A373AF93837380300AF
:101F6000463A9739F038930F1A3804FF6869676862
:101F7000A00F0038AB389238DB38163ABE388738B5
:101F80001A3803FF6C6F7700B50F0038AB38923802
:101F9000DB38F7390D3ABE3887381A3805FF7075C7
:101FA0006C736500C10F0038F938B13EB90FF038D5
:101FB0004E3909083038E00F893A023BB73ADD0F55
:101FC000C50F1A3807FF69735F6C6F773F00CE0F3C
:101FD000003892380D3A14391A3808FF69735F686F
:101FE0006967683FE20F00389238C9380D3AC73F39
:101FF0001A3808FF776169745F6C6F77ED0F0038EE
:10200000B13EE80F30380010BA3E1A380DFF776144
:1020100069745F686967685F616C6C00F90F00380C
:10202000B13EF30F30381010BA3E1A3804FF706911
:102030006E2106100038AB38F9389238C938F739B4
:102040000D3AF9380D3AF038163AF03887381A3820
:102050000AFF70696E5F6F757470757416100038C2
:102060002F3AB90F1A3809FF70696E5F696E707583
:102070007400281000382F3AC50F1A3809FF70690C
:102080006E5F686967683F00331000382F3A2F3A57
:1020900092380D3A1A3808FF70696E5F6C6F773F9F
:1020A0003E1000382F3A2F3A9238F7390D3A1A3845
:1020B00004FF70696E404B1000382F3A2F3A923867
:1020C0000D3A1A3806FF746F67676C655810003850
:1020D000B13E451030386F10C50F29387010B90F58
:1020E0001A380EFF70696E5F70756C6C75705F6F7B
:1020F000666662100038B13E3A10C50F1A380DFFFF
:1021000070696E5F70756C6C75705F6F6E007110CA
:102110000038B13E3A10B90F1A380BFF70696E3EA5
:102120006368616E6E656C007F100038D3387E394D
:102130001A3808FF6164632E696E69748D10003867
:102140003738400037387C008738373887003738D1
:102150007A0087381A380CFF6164632E696E6974DF
:102160002E70696E99100038C938C938B90F3A1005
:102170001A3808FF414453435F4D534BAB1042386C
:10218000400009FF6164632E737461727400B910BA
:102190000038BF1037387A00B90F1A3808FF616469
:1021A000632E77616974C110003837387A0092382D
:1021B000BF100D3A14393038D5101A380CFF61644D
:1021C000632E6368616E6E656C21CE1000383738FF
:1021D00007000D3A37387C00923837380700F73956
:1021E0000D3A163A37387C0087381A3807FF616491
:1021F000632E67657400DE1000389510E610C81075
:10220000D4103738780073381A380BFF616E616C60
:102210006F675F7265616400F6100038B13EB310FD
:10222000FC101A3807FF6275666665723A00051180
:102230000038DF08CE3FAC3E8D39143F1A3807FF17
:102240002B6669656C643A00121100384D08C93874
:102250004A079739A0080E949508BA3B97391A385F
:102260000FFF626567696E2D7374727563747572A2
:1022700065001F1100384D08FA3E4E39D83F4A0715
:10228000A0080E949508BA3B1A380DFF656E642DB0
:102290007374727563747572650030110038BE38DE
:1022A000613B1A3807FF636669656C643A00451143
:1022B0000038CE3F25111A3806FF6669656C643A0E
:1022C00052110038D33F25111A3807FF326669656D
:1022D0006C643A005C1100383738040025111A3854
:1022E00006FF6D61726B657265110038AA094D3B7E
:1022F000FA3E4D085E0A4E39893A9A3A4D3B4A07F2
:10230000D33FA83A7D114A074A07A0080E949508C2
:102310005E0A4E39893AAB38BA3B9A3A293B293A98
:10232000D33FA83A8B11AB38BA3BA401FB3E293A04
:10233000BA3BAA09293B1A3804FF414443487011AB
:102340004238190004FF4144434C9C1142381800A4
:1023500003FF6F722100A2110038AB389238DB38CE
:10236000163ABE3887381A3807FF70696E3E706FAC
:102370007300A8110038D3387E391A3808FF616419
:10238000632E696E6974B4110038373860003738CD
:102390007C0087383738870037387A0087381A3812
:1023A0000CFF6164632E696E69742E70696EBE11D4
:1023B0000038C938C938B90F3A101A3808FF4144F3
:1023C00053435F4D534BD0114238400009FF6164C5
:1023D000632E737461727400DE110038E4113738B3
:1023E0007A00AC111A3808FF6164632E7761697452
:1023F000E611003837387A009238E4110D3A143972
:102400003038FA111A380CFF6164632E6368616E0C
:102410006E656C21F3110038373807000D3A3738F4
:102420007C00923837380700F7390D3A163A3738BA
:102430007C0087381A3809FF6164632E6765743140
:102440003000031200380B12ED11F911A611923869
:10245000A011923837380800373A973937380600D4
:10246000463A1A3807FF6164632E676574001B12D1
:1024700000380B12ED11F911A01192381A3803FF30
:10248000736574003212411108000BFF7365742EDE
:1024900063756574797065003F122B11000008FFA9
:1024A0007365742E7261746545122B1102000AFF68
:1024B0007365742E6E756D6265724F122B11040078
:1024C0000DFF7365742E696E74656E73697479009F
:1024D00057122B11060004FF756E697460124238A2
:1024E000A90104FF757365726B12411108000CFF9E
:1024F000757365722E6375657479706571122B1131
:10250000000009FF757365722E72617465007712A1
:102510002B1102000BFF757365722E6E756D62656F
:10252000720081122B1104000EFF757365722E6903
:102530006E74656E736974798A122B11060006FF3A
:10254000637573746F6D94124238B10106FF316484
:10255000656C61799F124238B90104FF6D6F646543
:10256000A6124238BB0107FF7375626D6F64650088
:10257000AD124238BD010BFF7375626D61785F6DFE
:102580006F646500B3124238BF010BFF73656E7351
:102590006974697669747900BB124238C1010BFF16
:1025A0007363616C617264656C617900C512423855
:1025B000C3010AFF736C65657064656C6179CF1245
:1025C0004238C50107FF7273656E736F7200D912CE
:1025D0004238C70107FF6C73656E736F7200E212B9
:1025E0004238C90108FF437565436F756E74EA127E
:1025F0004238CB0105FF526573657400F212423810
:10260000CD0105FF616C61726D00FA124238CF0195
:1026100009FF616C61726D2E6D696E0001134238A5
:10262000D1010AFF616C61726D2E686F75720813BB
:102630004238D30104FF7365637311134238D50127
:1026400004FF6D696E731A134238D70105FF686F76
:102650007572730020134238D90104FF64617973E5
:1026600026134238DB0106FF6D6F6E7468732D13FD
:102670004238DD0105FF796561727300331342381A
:10268000DF0108FF6D61785F6D6F64653A13423852
:102690000A0006FF7249526C65644113980F0100ED
:1026A000250007FF6C7265646C6564004913980F20
:1026B0000200250007FF6C67726E6C6564005113A1
:1026C000980F0400250007FF6C626C756C65640050
:1026D0005A13980F0800250006FF6C49526C656478
:1026E0006313980F1000250004FF4C6564306C13D1
:1026F000980F2000250006FF726C696768747413D8
:10270000980F0100280006FF6C6C696768747B13E2
:10271000980F0200280002FF627A8313980F0400CA
:102720002B0007FF72626C756C6564008B13980F49
:1027300008002B0003FF737732009113980F1000ED
:102740002B0007FF7267726E6C6564009A13980F16
:1027500020002B0007FF727265646C656400A11392
:10276000980F40002B0003FF73773100AA13980FD6
:1027700080002B0004FF696E6974B31300384E1398
:10278000B90F4E132F105713B90F57132F10601393
:10279000B90F60132F106913B90F69132F1071133C
:1027A000B90F71132F107813C50F78132F10C411A0
:1027B0008013D8118813D8118E13C50F8E132F10C4
:1027C0009713B90F97132F109E13B90F9E133A103A
:1027D000A713B90FA7132F10B013B90FB0132F10F1
:1027E000B713B90FB7133A101A380BFF7265736538
:1027F000742E636C6F636B00BA1300384E391E136E
:102800007B384E3924137B384E392B137B38CE3F1F
:1028100031137B38CE3F38137B383738E0073F130E
:102820007B381A3808FF7365742E74696D65F5136B
:1028300000381E137B3824137B382B137B381A384F
:1028400008FF7365742E64617465121400383113C7
:102850007B3838137B383F137B381A3809FF736590
:10286000742E636C6F636B002014003818142614E8
:102870001A3808FF6765742E74696D652E14003868
:102880002B137338241373381E1373381A3808FF48
:102890006765742E64617465391400383F137338AA
:1028A00038137338311373381A3809FF6765742E7B
:1028B000636C6F636B00471400384D1473383F141A
:1028C00073381A3808FF6D73675F71756974551432
:1028D0000038C7031F0070726573732073776974C3
:1028E000636820312028427574746F6E2920746FDC
:1028F000207175697400FA03893F1A380AFF756EF2
:1029000069742E64656C6179621400386F12551217
:102910007338D71273380402760F1A381A3804FF46
:102920007377313F7E140038B71351103038A51437
:1029300037381400760FB71351103038A214D83F2F
:102940002938A3144E392938A6144E391A3804FFF1
:102950007377323F8F1400389E1351103038BD14F6
:1029600037381400760F9E1351103038BA14D83F00
:102970002938BB144E392938BE144E391A3804FF91
:1029800062757A7AA71400384E3909083038D114A4
:10299000893A8E13C50F023B8E13B90F023BB73A2B
:1029A000C9141A3806FF62757A7A6572BF14003846
:1029B000373864000402AB38AB38C314D33F163E3B
:1029C000760FC3141A3807FF2E726C69676874009B
:1029D000D214003880130D1137380400FA3D1A382C
:1029E00007FF2E6C6C6967687400E3140038881365
:1029F0000D1137380400FA3D1A3808FF5465737416
:102A00002E4C4544F01400384E3909083038191559
:102A1000893A6013C50FA713C50F37383200760FF8
:102A20006013B90FA713B90F37383200760FB73AD2
:102A300009151A3808FF7377323F6D6F6465FD140E
:102A40000038C3127B38B9127B38AB1430383715D5
:102A5000CE3FB912293AB9127338AB380315C312F5
:102A600073387239303837154E39B9127B38AB129A
:102A70007338373805000402760F93143038251563
:102A8000B91273381A3808FF546573744375657347
:102A90001A1500386F125E1273386F124D127338A8
:102AA0004E39C938C73F30385915D3388A012938CB
:102AB0003E16CE3FC938C73F30386E15D3384E3931
:102AC000090830386C15893A8E13C50F85148E139A
:102AD000B90F8514B73A641529383E16D33FC93863
:102AE000C73F30388315D3384E390908303881153F
:102AF000893AA713C50F8514A713B90F8514B73AE0
:102B0000791529383E1637380300C938C73F3038A1
:102B10009D15D3384E39090830389B15893AA713CB
:102B2000C50F8E13C50F8514A713B90F8E13B90FD8
:102B30008514B73A8F1529383E1637380400C9383E
:102B4000C73F3038B315D3384E3909083038B1157E
:102B5000893A6013C50F85146013B90F8514B73A0D
:102B6000A91529383E1637380500C938C73F30380F
:102B7000CD15D3384E3909083038CB15893A601352
:102B8000C50F8E13C50F85146013B90F8E13B90FBF
:102B90008514B73ABF1529383E1637380600C938AC
:102BA000C73F3038E715D3384E3909083038E515B6
:102BB000893A6013C50FA713C50F85146013B90FA9
:102BC000A713B90F8514B73AD91529383E163738E7
:102BD0000700C938C73F30380516D3384E390908C1
:102BE00030380316893A6013C50FA713C50F8E132B
:102BF000C50F85146013B90FA713B90F8E13B90F42
:102C00008514B73AF31529383E1637380800C93805
:102C1000C73F30381F16D3384E39090830381D16D3
:102C2000893A6013B90FA713C50F85146013C50F38
:102C3000A713B90F8514B73A111629383E1637383D
:102C40000900C938C73F30383D16D3384E39090816
:102C500030383B16893A6013B90FA713C50F8E138E
:102C6000C50F85146013C50FA713B90F8E13B90FC5
:102C70008514B73A2B1629383E16D3381A380CFF6C
:102C8000696E69742E647265616D657243150038F2
:102C9000E914E8127B38F614F0127B3885141A38E0
:102CA0000CFF73656E736F722E7363616C653F16F4
:102CB00000388D396B3C6F12691273380402373853
:102CC000640072391A380BFF73656E736F722E745D
:102CD0006573740050160038E914E8125816F6149B
:102CE000F0125816163A1A380BFF6D6F64652E6392
:102CF00068616E67650063160038B1127338AB38CF
:102D00001439BE383738040072390D3A1A3809FFC1
:102D1000616C61726D2E7365740074160038061351
:102D20007338D33F201506137B381A380AFF6472B4
:102D300065616D616C61726D871600383738C80047
:102D40004E39893AD33FD71437386400760FB73AF3
:102D5000A2161A380CFF616C61726D2E636C6F6382
:102D60006B3F96160038181373382B137338C73F10
:102D70003038CE160F13733824137338C73F3038EA
:102D8000CB16061373383038C816D83F2938C91601
:102D90004E392938CC164E392938CF164E391A38C3
:102DA00007FF447265616D657200AA1600384E39DE
:102DB000F8127B38CE3FFF127B3847169314303819
:102DC000E816E012733837380A009739E0127B387A
:102DD000CE3FF812533A7C163038F1164E39FF12B6
:102DE0007B3826047338E0127338723930380E1786
:102DF0006B1630380917CE3FF812533A49157C1636
:102E00009314163A303807174E39FF127B38293899
:102E10000C17373860EA760F29381417CE3F26048E
:102E2000533A373860EA760FB216303818179D16C5
:102E3000FF12733814393038EB16B216FF1273389C
:102E4000163A14393038DD161A3805FF537461729A
:102E50007400D01600384915D6161A3805FF4D6F84
:102E60006465300025170038C90C1A3805FF4D6F0E
:102E7000646531002E170038A4127F1273386F1268
:102E80004D127B38A412881273386F1255127B389A
:102E9000A412921273386F125E127B38A4129D1224
:102EA00073386F1269127B382A171A3805FF4D6F75
:102EB0006465320036170038373806006F124D123D
:102EC0007B38D33F6F1255127B38D33F6F125E129F
:102ED0007B38D33F6F1269127B382A171A3805FFE7
:102EE0004D6F6465330056170038373806006F128F
:102EF0004D127B38D33F6F1255127B38373806009E
:102F00006F125E127B38373804006F1269127B38FB
:102F10002A171A3805FF4D6F646534006F170038A3
:102F2000373807006F124D127B38D33F6F1255129E
:102F30007B3837380A006F125E127B38373805004D
:102F40006F1269127B382A171A3805FF4D6F6465B6
:102F500035008A170038A412921273383738FF00F0
:102F60002015A41292127B3849151A3805FF4D6FAF
:102F700064653600A5170038A4129D1273383738DF
:102F80000B002015A4129D127B3849151A3805FF35
:102F90004D6F64653700B6170038A4128812733875
:102FA00037380B002015A41288127B3849151A38BF
:102FB00005FF4D6F64653800C7170038A4127F12F3
:102FC000733837380B002015A4127F127B3849154F
:102FD0001A3805FF4D6F64653900D8170038CD12D7
:102FE000733837380B002015CD127B381A3808FF9C
:102FF000466F72746852454DE91700382A174E39EA
:10300000B1127B3837381400AB127B383738640084
:103010000315931430381B18B1127338293AAB38A2
:103020004713723930381618D3384E39AB38B112CD
:103030007B387C03893F4E39C938C73F30382E185A
:10304000D338C7030E004D6F64652030202D205308
:103050006C656570FA0333172938FC18CE3FC93800
:10306000C73F30384818D338C7031B004D6F64651D
:103070002031202D2041646A75737461626C652073
:1030800053657474696E6700FA033B172938FC189E
:10309000D33FC938C73F30385E18D338C703140050
:1030A0004D6F64652032202D204C69676874205371
:1030B0006C656570FA035B172938FC183738030014
:1030C000C938C73F30387618D338C70315004D6F5D
:1030D00064652033202D204D656469756D20536C27
:1030E00065657000FA0374172938FC183738040036
:1030F000C938C73F30388D18D338C70313004D6F18
:1031000064652034202D204465657020536C65650E
:103110007000FA038F172938FC1837380500C938B2
:10312000C73F3038A418D338C70314004D6F646507
:103130002035202D2043756520466C6173686573CA
:10314000FA03AA172938FC1837380600C938C73FD0
:103150003038BA18D338C70312004D6F6465203673
:10316000202D20496E74656E73697479FA03BB175C
:103170002938FC1837380700C938C73F3038CE180F
:10318000D338C7030D004D6F64652037202D2052C2
:1031900061746500FA03CC172938FC183738080029
:1031A000C938C73F3038E218D338C7030D004D6F18
:1031B00064652038202D205479706500FA03DD17EE
:1031C0002938FC1837380900C938C73F3038FB1890
:1031D000D338C70318004D6F64652039202D204176
:1031E000646A75737461626C65204D6F6465FA037F
:1031F000EE172938FC18D338AB127338373805006E
:103200000402760FF33E30380918EB3ED3381A38F3
:103210000BFF743A646174652674696D6500F71775
:103220001C0EE1012702470205FF726573657400F9
:1032300008190038CE3F4E391A380BFF64617931D6
:103240002E6D6F6E74682B0014190038CE3F311349
:103250007B38CE3F3813533A1A380AFF63686563E8
:103260006B2E646179731D19003831137338BE38C1
:10327000723930383C1925191A3808FF6C656170AD
:10328000796561722D1900383F137338AB383738C0
:1032900004001E3E1439C938373864001E3E143904
:1032A0000D3ABE38373890011E3E1439163A303880
:1032B0005E1937381D0034192938611937381C0058
:1032C00034191A380DFF6A6F622D646174652674B3
:1032D000696D65003D190038CE3F1E13533A1E1329
:1032E000733837383B00723930387B1919191E137F
:1032F0007B382413533A2413733837383B00723920
:1033000030388719191924137B382B13533A2B1390
:1033100073383738180072393038411A19192B139D
:103320007B383113533A3113733837381B007239F5
:103330003038411A381373384E39C938C73F3038DE
:10334000A519D338FD132938411ACE3FC938C73FD4
:103350003038B019D33837381F0034192938411A9A
:10336000D33FC938C73F3038B919D3384319293842
:10337000411A37380300C938C73F3038C519D33828
:1033800037381F0034192938411A37380400C93832
:10339000C73F3038D119D33837381E00341929388F
:1033A000411A37380500C938C73F3038DD19D338DE
:1033B00037381F0034192938411A37380600C93800
:1033C000C73F3038E919D33837381E003419293847
:1033D000411A37380700C938C73F3038F519D33894
:1033E00037381F0034192938411A37380800C938CE
:1033F000C73F3038011AD33837381F0034192938FD
:10340000411A37380900C938C73F30380D1AD33848
:1034100037381E0034192938411A37380A00C9389C
:10342000C73F3038191AD33837381F0034192938B4
:10343000411A37380B00C938C73F3038251AD338FE
:1034400037381E0034192938411A37380C00C9386A
:10345000C73F3038311AD33837381F00341929386C
:10346000411A37380D00C938C73F3038401AD338B1
:10347000CE3F38137B38CE3F3F13533A2938411A99
:10348000D3383738E803760F29386C191A380FFF0C
:1034900073657475702D646174652674696D65005B
:1034A000621900381019250EEC0D6B191A3810FF2F
:1034B0006461746574696D652D7475726E6B657980
:1034C000471A00381019530E4E391E137B383738FF
:1034D00083002C0D410D511A9C0E1019250EAA0EB9
:1034E0008F0E1A380BFF72756E2D7475726E6B65C8
:1034F0007900571A00387E0A611A1A38FFFFFFFF59
:10350000FFFFFFFFFFFFFFFFFFFFFFFFFFFFFFFFCB
:10351000FFFFFFFFFFFFFFFFFFFFFFFFFFFFFFFFBB
:10352000FFFFFFFFFFFFFFFFFFFFFFFFFFFFFFFFAB
:10353000FFFFFFFFFFFFFFFFFFFFFFFFFFFFFFFF9B
:10700000BF93AF93DB0111966EF0FD01EE0FFF1FF2
:10701000659175911196FB01EE0FFF1F059115917A
:10702000F8010994E89464EB7CE3F5CF04FF6578FC
:107030006974060D1B38AF91BF91E6CF07FF6578E5
:1070400065637574650016382538BC01899199917E
:10705000E2CF2A38FD01EE0FFF1FA591B591D4CFE5
:107060003138982B89919991A9F31196CDCF383861
:107070009A938A93FD01EE0FFF1F859195911196CA
:10708000C3CF42389A938A93FB013196EE0FFF1FCC
:1070900085919591B9CF4C389A938A93CB010196FB
:1070A000B3CF52389A938A93FB013196EE0FFF1FAC
:1070B00085919591840D951DA7CF07FF2876616C6A
:1070C000756529001E3800381C077C083F076938A1
:1070D0001A380E949508AB38B601BA3B24381A38E2
:1070E00001FF40005D387438FC01819191918CCF93
:1070F00001FF210070387C38FC01899199919183BE
:1071000080838991999180CF02FF632178388838F4
:10711000FC018991999180838991999175CF02FFA2
:10712000634084389338FC01992780816DCF02FF3A
:1071300040758F380038F03A973973381A3802FFA3
:10714000217597380038F03A97397B381A3803FFA1
:10715000647570009F38AC389A938A9355CF04FFBA
:107160003F647570A738B438082F092B11F09A9333
:107170008A934ACF04FF73776170AF38BF388C01B0
:10718000899199911A930A933FCF04FF6F766572A4
:10719000BA38CA389A938A938A819B8135CF04FF83
:1071A00064726F70C538D438899199912DCF03FFDF
:1071B000726F7400CF38DC388C0129913991899134
:1071C00099913A932A931A930A931ECF03FF6E69FB
:1071D0007000D738EB38229617CF02FF723EE638A0
:1071E000F1389A938A938F919F910ECF02FF3E724E
:1071F000ED38FA389F938F938991999105CF02FFCB
:107200007240F63803399A938A938F919F919F9396
:107210008F93FACE02FF3C3EFF380038C73F143947
:107220001A3802FF303D0A391539982BD1F530C094
:1072300002FF303C11391C3997FD2AC032C002FFD1
:10724000303E18392339821593055CF151F120C085
:1072500003FF64303E001F392D3982159305899153
:10726000999182059305ECF0E1F012C003FF6430C0
:107270003C0028393B39229697FD0C9448390C94F0
:10728000513904FF74727565363946399A938A9379
:107290008FEF9FEFB9CE01FF300041394F399A93FC
:1072A0008A93C101B1CE02FF753C4B395739299100
:1072B000399182179307A8F3A1F3EACF02FF753E35
:1072C00053390038BE3856391A3801FF3C005E3950
:1072D000693929913991281739071CF7D9CF01FF4E
:1072E0003E00653973392991399128173907CCF255
:1072F000C1F2CECF04FF6C6F67326F397F39FC016A
:10730000992780E18A9522F0EE0FFF1FD8F77CCEF7
:107310009A957ACE01FF2D007A398E39099119910B
:10732000081B190BC80170CE01FF2B008A39983950
:1073300009911991800F911F67CE02FF6D2A943930
:10734000A1398C01899199919C0131027001209F92
:10735000C0013003F308900DE11CF31C1203F30885
:10736000900DE11CF31C9A938A93C7014DCE06FF42
:10737000756D2F6D6F649D39BD397C0129913991EF
:107380000991199140E15527000F111F221F331F4A
:10739000551F2E153F05520518F003952E193F096C
:1073A0004A9589F73A932A93C8012ECE03FF756D4B
:1073B0002A00B739DB398C0189919991809FF001BE
:1073C00022273327909FF00D211D331D819FF00D43
:1073D000211D331D919F200D311DCF019A938A935A
:1073E000C90112CE06FF696E76657274D639F83916
:1073F0008095909509CE02FF322FF239FF3995958D
:10740000879502CE02FF322AFB39063A880F991F70
:10741000FBCD03FF616E6400023A0E3A09911991A7
:1074200080239123F1CD02FF6F72093A173A099137
:107430001991802B912BE8CD03FF786F7200133ADE
:10744000213A0991199180279127DECD02FF312B36
:107450001C3A2A3A0196D8CD02FF312D263A303A0D
:107460000197D2CD06FF6C73686966742C3A383A7E
:10747000FC018991999131971AF0880F991FFBCFE0
:10748000C3CD06FF727368696674323A473AFC01ED
:107490008991999131971AF096958795FBCFB4CD44
:1074A00002FF2B21413A543AFC01899199912081A4
:1074B0003181820F931F8083918389919991A4CD0B
:1074C00003FF72704000503A653A9A938A938DB7E1
:1074D0009EB79ACD03FF72702100603A6F3A2FB7C2
:1074E000F8948DBF9EBF2FBF899199918DCD03FFD9
:1074F000737040006A3A7C3A9A938A93CE0184CDA5
:1075000003FF73702100773A853AEC0189919991D4
:107510007BCD8A3A29913991E0E83E0F821B930B8B
:107520003F932F939F938F93899199916DCD01FFF5
:107530006900803A9B3A9A938A938F919F91EF9139
:10754000FF91FF93EF939F938F938E0F9F1F5CCDBF
:10755000A93AEF91FF91E80FF91F899199911BF0DA
:10756000FF93EF9377CD0F911F9111964DCDB83AC0
:10757000EF91FF913196BBF3F3CF06FF756E6C6F01
:107580006F70973AC33A1F910F911F910F913CCDA5
:1075900006FF636D6F76653EBD3ACE3ABF93AF93FB
:1075A000E991F991A991B991092F082B41F0E80FC0
:1075B000F91FA80FB91F1E9112930197E1F7AF9120
:1075C000BF918991999120CD02FF3E3CC83AE83A9B
:1075D000092F982F802F18CD03FF75704000E43AD3
:1075E000F13A9A938A93C2010FCD03FF757021007F
:1075F000EC3AFA3A2C018991999106CD03FF316D4D
:107600007300F53A033BE0EDF7E03197F1F7FCCC7E
:1076100003FF323E7200FE3A0D3BFC0189919991C5
:107620009F938F93FF93EF9389919991EDCC03FFF3
:1076300032723E00083B1C3B9A938A93EF91FF9174
:107640008F919F919A938A93CF01DECC02FF21659F
:10765000173B2A3BFC01899199912FB7F89428D0C8
:1076600000B5081709F00BD0319622D000B50917E4
:1076700011F0892F04D02FBF89919991C5CCF99928
:10768000FECF07B700FDFDCFF2BDE1BD80BDFA9A88
:10769000F99A089502FF4065263B4E3B2FB7F894B8
:1076A000FC0106D080B5319603D090B52FBFACCC8D
:1076B000F999FECFF2BDE1BDF89A089502FF216964
:1076C0004A3BDF3D6400803D8A3D09FF2821692D4A
:1076D0006E72777729005E3B6D3B1FB71F93F8945E
:1076E0009C0189919991AF93BF93CF93DF9309D078
:1076F000DF91CF91BF91AF91899199911F911FBF58
:1077000083CC11D0E094F0948E219F21982B21F00E
:10771000B394F90102E020D0F90104E01DD0F90191
:1077200000E11AD00895F901E07CFF7FEF01A0E4A9
:10773000B0E0FE01EE0FFF1F45915591FE01E217EB
:10774000F30711F00A0102C07A010C01002704D0EE
:107750002196119771F70895F999FECF17B710FD8B
:10776000FDCFEE0FFF1F016007BFE895089502FFF0
:107770004069653BBB3BFC01EE0FFF1F8591959176
:1077800043CC03FF6E3E7200B73BC63BFC01082FA3
:10779000899199919F938F930A95D1F7EF93FF93D6
:1077A0008991999131CC03FF6E723E00C13BD83B69
:1077B0009A938A93FF91EF910E2F8F919F919A93B5
:1077C0008A930A95D1F7CF011FCC03FF64322A00B8
:1077D000D33BEA3B09911991000F111F881F991F94
:1077E0001A930A9311CC03FF64322F00E53BF83B58
:1077F0000991199195958795179507951A930A936D
:1078000003CC02FF642BF33B053C29913991E990AD
:10781000F99049915991240F351F8E1D9F1D3A9360
:107820002A93F2CB02FF642D013C163C2991399139
:10783000E990F99049915991421B530BE80AF90AD2
:107840005A934A93C701E0CB07FF64696E7665726D
:107850007400123C2B3C09911991809590950095EC
:1078600010951A930A93D0CB04FF2F6D6F64243CBC
:10787000393C9C0109911991412F432717FF04C0FE
:10788000109500950F5F1F4F37FF04C0309520956E
:107890002F5F3F4FEE24FF1851E1001F111F5A9533
:1078A00039F447FF04C0109500950F5F1F4F0BC0C0
:1078B000EE1CFF1CE21AF30A20F4E20EF31E889479
:1078C000ECCF0894EACFFA92EA92C8019DCB03FF6D
:1078D00061627300343C6C3C99231AF48095909556
:1078E000019692CB04FF7069636B673C0038293ABC
:1078F000AC3E7B3A973973381A3805FF63656C6C78
:107900002B00723C833C02967FCB04FF2B696E7484
:107910007D3C8A3C789478CB04FF2D696E74853C5D
:10792000913CF89471CB04FF696E74218C3C003853
:10793000373800009739293B1A3804FF696E7440C4
:10794000933C00383738000097394D3B1A3808FF10
:10795000696E742D747261709D3CAE3C809316010B
:1079600089919991689450CB003837381601923834
:107970003738000097394D3B2438BF3C1A38C03C9B
:1079800001D042CB18950038C7030300206F6B006D
:10799000FA031A380038C70302003E20893FFA0371
:1079A0001A380038C7030400203F3F20FA03A53EE1
:1079B0007338F938293F7C03CA3E73387C03F038AA
:1079C000A53E7B381A3804FF71756974A73C0038EE
:1079D0003F0846087B38C505843AD2056E3AD4087C
:1079E0009F3E733814393038F63CCA3CD8043038DE
:1079F000F03C37381506503DB3383038083DAB38C9
:107A00003738FEFF68393038063DD13C2938E83C2C
:107A1000C33C2938F03C1A3805FF70617573650066
:107A2000E33CDF3D7D01943D9E3D04FF636F6C644C
:107A30000C3D1A3DA4B62224332424BEE0E0F1E03C
:107A40002192E030E9F7F930D9F7EFE7F1E02F01C3
:107A50000FEF0DBF048318E01EBF1583CFEAC68366
:107A6000D8E0D783AAE3BDE3CFCA04FF7761726D84
:107A7000153D0038990237388A013738113DBF3D2E
:107A8000D408443FE73C07FF68616E646C65720090
:107A9000353D52380A0005FF636174636800433D59
:107AA00000387B3AF938493D7338F938643A493D32
:107AB0007B382438F038493D7B38F038D3384E399C
:107AC0001A3805FF7468726F77004B3D0038AB3889
:107AD000143930386D3DD3381A38493D73386E3A11
:107AE000F038493D7B38F038BE38F938843AD3381D
:107AF000F0381A3807FF4564656665724000613DDD
:107B00000038BA3B4D3B1A3807FF4564656665721D
:107B100021007A3D0038BA3B293B1A3807FF5264EE
:107B2000656665724000843D0038BA3B73381A3888
:107B300007FF52646566657221008E3D0038BA3BCE
:107B40007B381A3807FF5564656665724000983DBA
:107B50000038BA3BF03A973973381A3807FF556442
:107B6000656665722100A23D0038BA3BF03A97394C
:107B70007B381A3806FF646566657221AE3D0038B1
:107B8000B83FAB38B601B601BA3B24381A3806FF05
:107B9000646566657240BA3D0038B83FAB38B601DF
:107BA000BA3B24381A3807FF2864656665722900D5
:107BB000C73D00381C077C083F07DF3D1A380E948C
:107BC0009508AB38B601BA3B243824381A3802FF7E
:107BD000643DD33D0038153C163A14391A3802FF7B
:107BE000752EE73D00384E3984031A3803FF752E91
:107BF0007200EF3D00384E39BE388D031A3805FF4C
:107C0000752F6D6F6400F63D0038F9384E39F03845
:107C1000BC391A3806FF6E6567617465FF3D003830
:107C2000F739293A1A3801FF2F000A3E0038383C4C
:107C3000EA381A3803FF6D6F6400133E0038383C91
:107C4000D3381A3803FF6D696E001A3E0038B13E12
:107C5000723930382C3EBE38D3381A3803FF6D6184
:107C60007800223E0038B13E68393038383EBE38A0
:107C7000D3381A3806FF77697468696E2E3E00386B
:107C8000C9388D39F9388D39F03856391A380DFF21
:107C900073686F772D776F72646C697374003A3E06
:107CA00000383738563EBE38BC061A380038D7067A
:107CB000FA03963F45391A3805FF776F72647300EF
:107CC000473E003837384A004D3B503E1A380200D4
:107CD0002E225C3E0038723E3F07FA031A3802003B
:107CE0007322673E0038373822007E059F3E733886
:107CF00030387B3E6B071A3804FF66696C6C6F3E48
:107D00000038DB38DB38B33830388D3E813F893A74
:107D1000AB389A3A8738B73A883ED3381A3805FFD5
:107D2000665F637075007C3E003837380012373864
:107D30007A001A3805FF7374617465008F3E42380B
:107D4000A50104FF626173659A3E52380C0005FF7D
:107D500063656C6C7300A13E063A04FF3264757073
:107D6000A73E0038C938C9381A3805FF3264726F27
:107D70007000AD3E0038D338D3381A3804FF74751C
:107D8000636BB53E0038BE38C9381A3803FF3E6908
:107D90006E00BE3E5238180003FF70616400C63E9C
:107DA00000380B3F3738280097391A3804FF656DC3
:107DB0006974CC3EDF3D0E00A83DB43D05FF656D06
:107DC00069743F00D63EDF3D1000A83DB43D03FF7F
:107DD0006B657900DE3EDF3D1200A83DB43D04FF37
:107DE0006B65793FE73EDF3D1400A83DB43D02FFDF
:107DF0006470EF3E69383600803D8A3D05FF656856
:107E000065726500F73E69383A00803D8A3D04FF9F
:107E100068657265FE3E69383800803D8A3D05FF21
:107E2000616C6C6F7400073F00380B3F9739A401F9
:107E30000C3F1A3803FF62696E000F3F0038D33FD2
:107E4000A53E7B381A3807FF646563696D616C0075
:107E50001A3F003837380A00A53E7B381A3803FF2E
:107E600068657800233F003837381000A53E7B381E
:107E70001A3802FF626C2F3F4238200007FF7475EA
:107E8000726E6B657900393FDF3D4000803D8A3D71
:107E900007FF746F7570706572003E3F0038AB3835
:107EA0003738610037387B003F3E30385A3F37382B
:107EB000DF000D3A1A3807FF746F6C6F7765720038
:107EC000483F0038AB383738410037385B003F3E19
:107ED00030386D3F37382000163A1A3806FF3F73A6
:107EE0007461636B5B3F0038DD051B3930387B3FC5
:107EF0003738FCFF663D1A3806FF626F756E647393
:107F00006E3F0038C9389739BE381A3802FF63729D
:107F10007C3F003837380D00DA3E37380A00DA3E49
:107F20001A3805FF737061636500863F00383C3F77
:107F3000DA3E1A3806FF737061636573913F00384B
:107F40004E39323EAB383038A93F963F2F3A293868
:107F5000A23FD3381A3803FF733E64009A3F0038BB
:107F6000AB381B391A3805FF3E626F647900AB3FAE
:107F70002A3A0800326C69746572616CB33F00384C
:107F8000BE38600760071A3801FF3D00B93F00386E
:107F90008D3914391A3801FF3100C43F42380100CD
:107FA00001FF3200CB3F4238020002FF2D31D03FAB
:107FB0004238FFFFFFFFFFFFFFFFFFFFFFFFFFFF55
:107FC000FFFFFFFFFFFFFFFFFFFFFFFFFFFFFFFFC1
:107FD000FFFFFFFFFFFFFFFFFFFFFFFFFFFFFFFFB1
:107FE000FFFFFFFFFFFFFFFFFFFFFFFFFFFFFFFFA1
:107FF000FFFFFFFFFFFFFFFFFFFFFFFFFFFFFFFF91
:00000001FF
